:100000005DC0000080C000007EC000007CC0000019
:100010007AC0000078C0000076C0000074C0000004
:1000200072C0000070C000006EC000006CC0000014
:100030006AC0000068C0000066C0000064C0000024
:100040002AC2000060C000005EC000005CC000006A
:100050005AC0000058C0000056C0000054C0000044
:1000600052C0000050C00000000000080002010063
:100070000003040700000000000000000102040863
:100080001020408001020408102001020408102002
:10009000040404040404040402020202020203032E
:1000A0000303030300000000250028002B000000CC
:1000B0000000240027002A00A100C20011241FBE56
:1000C000CFEFD8E0DEBFCDBF11E0A0E0B1E0E6E4C5
:1000D000FEE002C005900D92AC33B107D9F721E0E4
:1000E000ACE3B1E001C01D92A337B207E1F710E025
:1000F000CAEBD0E003C02297FE0164D4C83BD1070D
:10010000D1F7BED194C67CCF20E042E060E18CE321
:1001100091E0F3D240E060E08CE391E0D6D24AE097
:1001200050E063E070E08CE391E026D141E060E0D4
:100130008CE391E0CAD264E571E08CE391E069C0A0
:100140000895CF92EF920F9366E071E084E591E01D
:1001500081D164E171E08AE591E07CD166E271E0F1
:1001600080E691E077D187E0C82E96E0E92E05E0A1
:1001700024E049E068E08CE391E045D30F91EF90F3
:10018000CF90089580E691E0FED08AE591E0FBD023
:1001900084E591E0F8C0CF92DF92EF92FF920F9347
:1001A0001F93CF93DF937C016A01EB0100E010E025
:1001B0000C151D0571F06991D701ED91FC9101902D
:1001C000F081E02DC7010995892B19F00F5F1F4FB2
:1001D000EFCFC801DF91CF911F910F91FF90EF906A
:1001E000DF90CF9008956115710581F0DB010D90CE
:1001F0000020E9F7AD0141505109461B570BDC01C6
:10020000ED91FC910280F381E02D099480E090E073
:100210000895DC01ED91FC91DB0114964D915C9108
:1002200015976D917C910280F381E02D0994DC019A
:10023000ED91FC910190F081E02D09948F929F92B5
:10024000AF92BF92CF92DF92EF92FF920F931F93E4
:10025000CF93DF93CDB7DEB7A1970FB6F894DEBF8B
:100260000FBECDBF7C01C42EE52FCB01D22E19A22B
:1002700021E02D1510F02AE0D22E8E010F5D1F4FC8
:100280008D2C912CA12CB12C6C2D7E2FA5019401CD
:1002900075D38C2DD29E80191124015011098A30FA
:1002A00014F4805D01C0895CF8018083211531055B
:1002B0004105510521F0C22EE32FCA01E5CFB80157
:1002C000C70191DFA1960FB6F894DEBF0FBECDBF78
:1002D000DF91CF911F910F91FF90EF90DF90CF9022
:1002E000BF90AF909F908F900895CF92DF92EF9242
:1002F000FF920F931F93CF93DF93EC016A017B0171
:100300002115310579F4E881F9810190F081E02D22
:10031000642FDF91CF911F910F91FF90EF90DF90AD
:10032000CF9009942A303105D9F477FF18C06DE2D7
:100330007EDF8C0144275527BA014C195D096E09EF
:100340007F092AE0CE017ADF800F911FDF91CF91E4
:100350001F910F91FF90EF90DF90CF9008952AE0CA
:10036000B701A601CE01DF91CF911F910F91FF90B0
:10037000EF90DF90CF9062CF9A01AB01662757FDD7
:100380006095762FB2CFFC0180819181B7C3CF9366
:10039000DF93EC0188819981009709F0AFD319822E
:1003A00018821D821C821B821A82DF91CF910895D0
:1003B0000F931F93CF93DF93EC018B016F5F7F4F00
:1003C000888199812AD4009731F0998388831B838F
:1003D0000A8381E001C080E0DF91CF911F910F91EE
:1003E0000895CF93DF93EC0188819981892B29F0BF
:1003F0008A819B818617970758F4CE01D9DF88231D
:1004000041F08C819D81892B19F4E881F98110825A
:1004100081E0DF91CF910895EF92FF920F931F93A8
:10042000CF93DF93EC017B018A01BA01DADF8111FE
:1004300003C0CE01ACDF06C01D830C83B7018881E9
:100440009981B7D4CE01DF91CF911F910F91FF9089
:10045000EF900895FC01118210821382128215829E
:1004600014826115710551F0FB0101900020E9F73C
:10047000AF0141505109461B570BCECF0895089547
:100480005FD0FDDF41DEC0E0D0E05ADE2097E9F327
:100490000E940000FACF1F920F920FB60F92112404
:1004A0002F933F938F939F93AF93BF938091670157
:1004B00090916801A0916901B0916A013091660143
:1004C00023E0230F2D3720F40196A11DB11D05C097
:1004D00026E8230F0296A11DB11D2093660180938B
:1004E000670190936801A0936901B0936A018091BC
:1004F0006B0190916C01A0916D01B0916E0101961C
:10050000A11DB11D80936B0190936C01A0936D01AF
:10051000B0936E01BF91AF919F918F913F912F91B9
:100520000F900FBE0F901F9018958230910538F0F4
:10053000880F991F880F991F05970197F1F7089564
:10054000789484B5826084BD84B5816084BD85B5AE
:10055000826085BD85B5816085BDEEE6F0E0808175
:1005600081608083E1E8F0E0108280818260808396
:10057000808181608083E0E8F0E080818160808319
:10058000E1EBF0E0808184608083E0EBF0E080814B
:1005900081608083EAE7F0E08081846080838081ED
:1005A0008260808380818160808380818068808395
:1005B0001092C1000895CF93DF93EC0160E08E812B
:1005C000A8D181E090E0B1DF61E08E81A2D181E02D
:1005D00090E0ABDF60E08E819CD184E690E0DF911B
:1005E000CF91A3CFEF92FF920F931F93CF93DF93FF
:1005F0008C01C0E0D0E0E62EF12CB7010C2E02C039
:10060000759567950A94E2F76170F801EC0FFD1F8C
:1006100087817FD12196C430D10579F7C801DF9158
:10062000CF911F910F91FF90EF90C5CFEF92FF9266
:100630000F931F93CF93DF938C01C0E0D0E0E62EA1
:10064000F12CB7010C2E02C0759567950A94E2F75C
:100650006170F801EC0FFD1F87815BD12196C830D6
:10066000D10579F7C801DF91CF911F910F91FF90CC
:10067000EF90A1CF1F93CF93DF93EC01162F642F40
:100680008C8147D18D818F3F11F060E042D18F8501
:10069000612F84FF05C0CE01DF91CF911F91C6CF9E
:1006A00070E084E0759567958A95E1F7CE019ADF51
:1006B000612FCE01DF91CF911F9194CF40E0DACF2F
:1006C00061E0FCDF80ED97E030CF443008F043E09C
:1006D000FC012389421710F04FEF420FFC01E40F99
:1006E000F11D2489260F2068622FE8CFFC01608964
:1006F000262F2460208B6C60E1CF0F931F93CF9344
:10070000DF93EC01423018F08F8588608F874B8B28
:100710001C8A80E48D8B6E8B70E0605C7F4F6F8BEA
:10072000222329F0413019F48F8584608F8761E09E
:100730008C81B6D08D818F3F11F061E0B1D061E046
:100740008E81AED000E010E08F8584FF03C088E08A
:1007500090E002C084E090E0081719074CF4FE0115
:10076000E00FF11F61E087819BD00F5F1F4FECCF3F
:1007700080E593ECDADE60E08C81CBD060E08E81A6
:10078000C8D08D818F3F11F060E0C3D06F8564FDCC
:1007900016C063E0CE0126DF84E991E1C6DE63E0A6
:1007A000CE0120DF84E991E1C0DE63E0CE011ADFF3
:1007B00086E990E0BADE62E0CE0114DF11C060622B
:1007C000CE017CDF84E991E1B0DE6F856062CE010D
:1007D00075DF86E990E0A9DE6F856062CE016EDF8D
:1007E0006F856062CE016ADF84E0888BCE017EDF98
:1007F000CE0166DF82E0898B66E0CE01DF91CF918A
:100800001F910F915BCFCF92EF920F93FC01138258
:10081000128288E391E09183808364838FEF8583E4
:10082000468327830087E186C28613861486158651
:100830001686178620E041E060E1CF010F91EF902E
:10084000CF905BCF41E016DF81E090E008958330E8
:1008500081F028F4813099F08230A1F0089587303A
:10086000A9F08830B9F08430D1F4809180008F7D78
:1008700003C0809180008F7780938000089584B5B5
:100880008F7702C084B58F7D84BD08958091B000BC
:100890008F7703C08091B0008F7D8093B000089562
:1008A000CF93DF9390E0FC01E458FF4F2491FC01CB
:1008B000E057FF4F8491882349F190E0880F991FFA
:1008C000FC01E255FF4FA591B4918C559F4FFC015F
:1008D000C591D4919FB7611108C0F8948C9120956F
:1008E00082238C93888182230AC0623051F4F89469
:1008F0008C91322F309583238C938881822B88832F
:1009000004C0F8948C91822B8C939FBFDF91CF9180
:1009100008950F931F93CF93DF931F92CDB7DEB748
:10092000282F30E0F901E859FF4F8491F901E4588C
:10093000FF4F1491F901E057FF4F04910023C1F0DC
:10094000882319F0698383DF6981E02FF0E0EE0FDF
:10095000FF1FEC55FF4FA591B4919FB7F8948C9170
:10096000611103C01095812301C0812B8C939FBF1F
:100970000F90DF91CF911F910F910895A1E21A2E50
:10098000AA1BBB1BFD010DC0AA1FBB1FEE1FFF1F33
:10099000A217B307E407F50720F0A21BB30BE40B83
:1009A000F50B661F771F881F991F1A9469F76095CA
:1009B0007095809590959B01AC01BD01CF01089584
:1009C000EE0FFF1F0590F491E02D0994CF93DF9374
:1009D0008230910510F482E090E0E0917101F09195
:1009E000720120E030E0A0E0B0E0309739F14081C2
:1009F000518148175907B8F04817590771F4828197
:100A00009381109729F013969C938E9312972CC084
:100A1000909372018093710127C02115310531F047
:100A20004217530718F0A901DB0101C0EF019A0139
:100A3000BD01DF010280F381E02DD7CF2115310503
:100A4000F9F0281B390B2430310580F48A819B8111
:100A50006115710521F0FB019383828304C090939B
:100A6000720180937101FE01329644C0FE01E20FD3
:100A7000F31F8193919322503109398328833AC01F
:100A800020916F0130917001232B41F420910201DC
:100A9000309103013093700120936F012091000188
:100AA000309101012115310541F42DB73EB7409138
:100AB000040150910501241B350BE0916F01F09169
:100AC0007001E217F307A0F42E1B3F0B281739071C
:100AD00078F0AC014E5F5F4F2417350748F04E0F9A
:100AE0005F1F5093700140936F018193919302C0F7
:100AF000E0E0F0E0CF01DF91CF910895CF93DF9355
:100B0000009709F487C0FC01329713821282C091CA
:100B10007101D0917201209781F420813181280FD9
:100B2000391F80916F01909170018217930779F5B9
:100B3000F0937001E0936F016DC0DE0120E030E0C2
:100B4000AE17BF0750F412964D915C9113979D011B
:100B50004115510509F1DA01F3CFB383A283408136
:100B60005181840F951F8A179B0771F48D919C9179
:100B70001197840F951F02969183808312968D9111
:100B80009C911397938382832115310529F4F09367
:100B90007201E09371013EC0D9011396FC93EE936C
:100BA00012974D915D91A40FB51FEA17FB0779F4D9
:100BB00080819181840F951F0296D90111969C9393
:100BC0008E938281938113969C938E931297E0E08B
:100BD000F0E08A819B81009719F0FE01EC01F9CFCA
:100BE000CE01029628813981820F931F20916F01D7
:100BF000309170012817390769F4309729F4109261
:100C000072011092710102C013821282D09370019E
:100C1000C0936F01DF91CF910895A0E0B0E0E2E1D1
:100C2000F6E0D2C0EC01CB01209711F4CFDEB4C0C6
:100C3000FE01E60FF71F9E0122503109E217F3076C
:100C400008F4A8C0D9010D911C9111970617170738
:100C5000B0F00530110508F49BC0A80144505109BB
:100C60004617570708F494C002501109061B170BCA
:100C7000019311936D937C93CF0140DF89C05B0199
:100C8000A01AB10A4E01800E911EA0917101B0917F
:100C90007201612C712C60E070E0109709F449C07A
:100CA000A815B905C9F5ED90FC901197670142E0D0
:100CB000C40ED11CCA14DB0478F147018A189B08C2
:100CC000640142E0C40ED11C1296BC901297139698
:100CD000AC91B5E0CB16D10440F0B282A3839182EF
:100CE0008082D9018D939C9309C00E5F1F4F0E0D1A
:100CF0001F1DF90111830083EB2DFA2F611571057A
:100D000031F0DB011396FC93EE93129741C0F09300
:100D10007201E09371013CC06D917C911197661650
:100D2000770608F43B01BD0112960D90BC91A02DF1
:100D3000B4CF60916F017091700168157905E9F485
:100D400068167906D0F440910001509101014115D7
:100D5000510541F44DB75EB76091040170910501F2
:100D6000461B570BE417F507A8F4F0937001E093C6
:100D70006F01F901918380830BC028DE7C0100970D
:100D800049F0A801BE010CD0CE01B8DEC70104C0F5
:100D9000CE0102C080E090E0CDB7DEB7EEE030C01B
:100DA000FB01DC0102C001900D9241505040D8F788
:100DB0000895FB01DC0101900D920020E1F70895F8
:100DC0002F923F924F925F926F927F928F929F925B
:100DD000AF92BF92CF92DF92EF92FF920F931F9349
:100DE000CF93DF93CDB7DEB7CA1BDB0B0FB6F894FA
:100DF000DEBF0FBECDBF09942A88398848885F843A
:100E00006E847D848C849B84AA84B984C884DF80AA
:100E1000EE80FD800C811B81AA81B981CE0FD11D8E
:100E20000FB6F894DEBF0FBECDBFED01089510E000
:100E3000CAEBD0E003C0FE01C5DD2296CC3BD10752
:060E4000D1F7F894FFCF8A
:100E46000000730180005B2052414D5020574156EF
:100E560045205D005B204D45414E4445522057419B
:100E66005645205D20005B2053494E45205741568C
:0C0E760045205D00000000002204CB00BD
:00000001FF
