:100000005EC0000083C0000081C000007FC000000F
:100010007DC000007BC0000079C0000077C00000F8
:1000200075C0000073C0000071C000006FC0000008
:100030006DC000006BC0000069C0000067C0000018
:100040004CC6000063C00000FCC300002CC40000CC
:100050005DC000005BC0000059C0000057C0000038
:1000600055C0000053C0000000000008000201005D
:100070000003040700000000000000000102040863
:100080001020408001020408102001020408102002
:10009000040404040404040402020202020203032E
:1000A0000303030300000000250028002B000000CC
:1000B0000000240027002A00B5028104E002112478
:1000C0001FBECFEFD8E0DEBFCDBF11E0A0E0B1E0B2
:1000D000E6E6F7E102C005900D92A437B107D9F723
:1000E00022E0A4E7B1E001C01D92AC35B207E1F710
:1000F00010E0CCEBD0E004C02297FE010E946A0918
:10010000C83BD107C9F7DFD50C94A70B79CF80E0A6
:10011000BCD6893E23E0920704F5823391058CF02A
:100120008A3F91058CF0823C21E0920784F08A3866
:1001300022E092077CF0823593407CF484E090E0EA
:10014000089580E090E0089581E090E0089582E0D5
:1001500090E0089583E090E0089585E090E00895B0
:100160008AE991E033D584E991E030D58CEA91E0D9
:100170002DD586EA91E02AD580EA91E027C5CF9374
:10018000DF9326E040E855E260E070E082EB91E02A
:10019000F8D2C2E3D1E08881229661E0BCD681E04A
:1001A000C234D807C1F720E042E060E184E791E083
:1001B000C3D784E791E0A3D780E090E00E94680B6A
:1001C00081111BC081E090E00E94680B90E0909349
:1001D00091018093900182E090E00E94680B90E092
:1001E00090938F0180938E0183E090E00E94680BD2
:1001F00090E090938D0180938C01DF91CF910895D1
:1002000067E071E082EB91E016D484E791E077D764
:1002100040E060E084E791E077D769E071E084E74F
:1002200091E0FED38091920190919301892BD1F4BA
:100230006FE071E084E791E0F3D3809190019091B9
:10024000910126E0289FB001299F700D112460566E
:100250007E4F84E791E0D6D361E171E084E791E0DD
:10026000DFD314C067E071E084E791E0D9D38091D7
:1002700090019091910126E0289FB001299F700D77
:10028000112460567E4F84E791E0BCD341E060E0EA
:1002900084E791E039D763E171E084E791E0C0D36E
:1002A0008091920190919301019789F46FE071E040
:1002B00084E791E0B5D360918E0170918F014AE09F
:1002C00050E084E791E065D461E171E010C067E03F
:1002D00071E084E791E0A4D360918E0170918F0169
:1002E0004AE050E084E791E054D467E071E084E7AD
:1002F00091E096D380919201909193010297C9F475
:100300006FE071E084E791E08BD380918C01909154
:100310008D0126E0289FB001299F700D11246C5695
:100320007E4F84E791E06ED361E171E084E791E074
:1003300077C367E071E084E791E072D380918C012C
:1003400090918D0126E0289FB001299F700D112406
:100350006C567E4F84E791E055C310929301109242
:1003600092014EDFC2E0D0E06AEF70E080E090E002
:1003700021D5CDDE8230910561F02CF40097D9F0C3
:10038000019741F585D08330910529F0059761F3F8
:1003900021C022D01FC080919001909191010197BE
:1003A000909391018093900197FF14C0D093910195
:1003B000C09390010FC0809190019091910101969E
:1003C0009093910180939001039724F010929101F2
:1003D0001092900115DFC8CF81E090E090939301D7
:1003E000809392010DDF6AEF70E080E090E0E2D44C
:1003F00069E171E082EB91E01ED389DE81309105E5
:1004000051F01CF4892B49F0EECF8230910521F098
:100410000397F1F0E8CFA1DF3BD080918E0190915E
:100420008F01019690938F0180938E01E0918C0152
:10043000F0918D01EE0FFF1FEE0FFF1FEE5BFE4FE1
:1004400022813381281739076CF6808191811BC086
:1004500080918E0190918F01019790938F018093ED
:100460008E01E0918C01F0918D01EE0FFF1FEE0FD8
:10047000FF1FEE5BFE4F20813181821793070CF046
:10048000B1CF8281938190938F0180938E01AACF07
:1004900082E090E09093930180939201B1DEC1E0FD
:1004A000D0E06AEF70E080E090E084D430DE81300C
:1004B000910551F01CF4892BA9F0F3CF82309105FE
:1004C00021F0039719F0EDCF87DF47DF80918C0192
:1004D00090918D01019797FF0DC0D0938D01C0932E
:1004E0008C0111C080918C0190918D010196823018
:1004F00091052CF490938D0180938C0104C010928F
:100500008D0110928C0180918C0190918D01880F4A
:10051000991F880F991FFC01EE5BFE4F22813381EA
:1005200040918E0150918F012417350724F43093A8
:100530008F0120938E01FC01EE5BFE4F8081918143
:1005400020918E0130918F012817390724F4909360
:100550008F0180938E0154DEA4CF4AE050E062E028
:1005600070E082EB91E01CD3F8DECF92EF920F9314
:100570006CE171E080EA91E090D361E271E086EA9B
:1005800091E08BD369E271E08CEA91E086D36FE26F
:1005900071E084E991E081D36EE271E08AE991E053
:1005A0007CD357E0C52E66E0E62E05E024E049E066
:1005B00068E084E791E046D60F91EF90CF900895E0
:1005C000CFCDFC01818D228D90E0805C9F4F821BFE
:1005D00091098F7399270895FC01918D828D981749
:1005E00031F0828DE80FF11D858D90E008958FEF39
:1005F0009FEF0895FC01918D828D981761F0828D97
:10060000DF01A80FB11D5D968C91928D9F5F9F7346
:10061000928F90E008958FEF9FEF089588E794E020
:10062000892B41F080E090E0892B21F061D181118C
:100630000C9400000895FC01848DDF01A80FB11D0A
:10064000A35ABF4F2C91848D90E001968F73992708
:10065000848FA689B7892C93A089B1898C918064F5
:100660008C93938D848D981306C00288F389E02DB6
:1006700080818F7D80830895CF93DF93EC01888DF7
:100680008823C1F0EA89FB89808185FD05C0A8899E
:10069000B9898C9186FD0EC00FB607FCF5CF80811D
:1006A00085FFF2CFA889B9898C9185FFEDCFCE0166
:1006B000C2DFE8CFDF91CF910895CF92DF92FF9212
:1006C0000F931F93CF93DF931F92CDB7DEB76C01CB
:1006D00081E0D60158968C9358975B969C915B97D6
:1006E0005C968C915C97981307C05096ED91FC91A5
:1006F0005197808185FD2DC0F601038D10E00F5FBD
:100700001F4F0F731127F02EF601848DF81210C0C1
:100710000FB607FCF9CFD6015096ED91FC91519799
:10072000808185FFF1CFC601698385DF6981ECCFC8
:10073000838DE80FF11DE35AFF4F6083D6015B966E
:100740000C935B975296ED91FC9153978081806258
:100750000CC0D6015696ED91FC9157976083509648
:10076000ED91FC91519780818064808381E090E0DD
:100770000F90DF91CF911F910F91FF90DF90CF905D
:100780000895BF92CF92DF92EF92FF92CF93DF93C3
:10079000EC016A017B01B22EE889F98982E080834D
:1007A000411581EE58076105710599F060E079E027
:1007B0008DE390E0A701960169D5215031094109E7
:1007C00051095695479537952795211580E13807AA
:1007D00090F0E889F989108260E874E88EE190E091
:1007E000A701960153D52150310941095109569568
:1007F000479537952795EC85FD853083EE85FF85F8
:100800002083188EEC89FD89B082EA89FB8980817A
:1008100080618083EA89FB89808188608083EA899E
:10082000FB89808180688083EA89FB8980818F7D54
:100830008083DF91CF91FF90EF90DF90CF90BF90BA
:1008400008951F920F920FB60F9211242F938F933A
:100850009F93EF93FF93E091C201F091C3018081D8
:10086000E091C801F091C90182FD12C09081809190
:10087000CB018F5F8F732091CC01821751F0E091F3
:10088000CB01F0E0EE54FE4F958F8093CB0101C079
:100890008081FF91EF919F918F912F910F900FBECB
:1008A0000F901F9018951F920F920FB60F92112460
:1008B0002F933F934F935F936F937F938F939F9368
:1008C000AF93BF93EF93FF9382EB91E0B4DEFF9180
:1008D000EF91BF91AF919F918F917F916F915F91B8
:1008E0004F913F912F910F900FBE0F901F90189531
:1008F00082EB91E066DE21E0892B09F420E0822F73
:1009000008951092B5011092B40188EE93E0A0E032
:10091000B0E08093B6019093B701A093B801B09373
:10092000B9018EE491E09093B3018093B20185EC1C
:1009300090E09093BF018093BE0184EC90E090938F
:10094000C1018093C00180EC90E09093C30180933B
:10095000C20181EC90E09093C5018093C40182ECC8
:1009600090E09093C7018093C60186EC90E090934D
:10097000C9018093C8011092CB011092CC01109252
:10098000CD011092CE010895CF92DF92EF92FF92A7
:100990000F931F93CF93DF937C016A01EB0100E07B
:1009A00010E00C151D0571F06991D701ED91FC91D6
:1009B0000190F081E02DC7010995892B19F00F5F97
:1009C0001F4FEFCFC801DF91CF911F910F91FF9083
:1009D000EF90DF90CF9008956115710581F0DB01F4
:1009E0000D900020E9F7AD0141505109461B570B0E
:1009F000DC01ED91FC910280F381E02D099480E00F
:100A000090E00895DC01ED91FC91DB0114964D918D
:100A10005C9115976D917C910280F381E02D099492
:100A2000DBCFDC01ED91FC910190F081E02D099488
:100A30006AE571E0D1CF0F931F93CF93DF93EC0161
:100A4000CBDF8C01CE01F4DF800F911FDF91CF91BE
:100A50001F910F9108958F929F92AF92BF92CF9264
:100A6000DF92EF92FF920F931F93CF93DF93CDB757
:100A7000DEB7A1970FB6F894DEBF0FBECDBF7C01E5
:100A8000C42EE52FCB01D22E19A221E02D1510F096
:100A90002AE0D22E8E010F5D1F4F8D2C912CA12CA0
:100AA000B12C6C2D7E2FA5019401F0D38C2DD29EFC
:100AB00080191124015011098A3014F4805D01C09D
:100AC000895CF8018083211531054105510521F02C
:100AD000C22EE32FCA01E5CFB801C7017DDFA19681
:100AE0000FB6F894DEBF0FBECDBFDF91CF911F913F
:100AF0000F91FF90EF90DF90CF90BF90AF909F90BD
:100B00008F900895CF92DF92EF92FF920F931F93F1
:100B1000CF93DF93EC016A017B012115310579F454
:100B2000E881F9810190F081E02D642FDF91CF9170
:100B30001F910F91FF90EF90DF90CF9009942A3092
:100B40003105D9F477FF18C06DE26BDF8C014427C3
:100B50005527BA014C195D096E097F092AE0CE01BB
:100B60007ADF800F911FDF91CF911F910F91FF903E
:100B7000EF90DF90CF9008952AE0B701A601CE0153
:100B8000DF91CF911F910F91FF90EF90DF90CF9069
:100B900062CF9A01AB01662757FD6095762FB2CFE1
:100BA0000F931F93CF93DF93EC019A01AB0166275C
:100BB00057FD6095762FA6DF8C01CE0139DF800FBF
:100BC000911FDF91CF911F910F910895FC018081BA
:100BD00091811CC4CF93DF93EC01888199810097A8
:100BE00009F014D4198218821D821C821B821A8279
:100BF000DF91CF9108950F931F93CF93DF93EC0173
:100C00008B016F5F7F4F888199818FD4009731F07E
:100C1000998388831B830A8381E001C080E0DF9190
:100C2000CF911F910F910895CF93DF93EC018881AD
:100C30009981892B29F08A819B818617970758F41F
:100C4000CE01D9DF882341F08C819D81892B19F455
:100C5000E881F981108281E0DF91CF910895EF92D0
:100C6000FF920F931F93CF93DF93EC017B018A01D7
:100C7000BA01DADF811103C0CE01ACDF06C01D83EB
:100C80000C83B701888199811CD5CE01DF91CF916A
:100C90001F910F91FF90EF900895FC011182108237
:100CA00013821282158214826115710551F0FB01C5
:100CB00001900020E9F7AF0141505109461B570B45
:100CC000CECF08950895A6D0FDDF59DACEE0D3E067
:100CD00044DC2097E9F3A2DCFBCF1F920F920FB602
:100CE0000F9211242F933F938F939F93AF93BF93B2
:100CF0008091500290915102A0915202B091530202
:100D000030914F0223E0230F2D3720F40196A11DCF
:100D1000B11D05C026E8230F0296A11DB11D209329
:100D20004F028093500290935102A0935202B093CD
:100D300053028091540290915502A0915602B091B5
:100D400057020196A11DB11D809354029093550244
:100D5000A0935602B0935702BF91AF919F918F918C
:100D60003F912F910F900FBE0F901F9018953FB796
:100D7000F8948091540290915502A0915602B0913E
:100D8000570226B5A89B05C02F3F19F00196A11D5B
:100D9000B11D3FBF6627782F892F9A2F620F711DD3
:100DA000811D911D42E0660F771F881F991F4A958C
:100DB000D1F70895CF92DF92EF92FF92CF93DF9316
:100DC0006B017C01D4DFEB01C114D104E104F10417
:100DD00079F00FD1CCDF6C1B7D0B683E7340A0F324
:100DE00081E0C81AD108E108F108C851DC4FECCF06
:100DF000DF91CF91FF90EF90DF90CF9008958230F8
:100E0000910538F0880F991F880F991F0597019752
:100E1000F1F70895789484B5826084BD84B58160CB
:100E200084BD85B5826085BD85B5816085BDEEE6F2
:100E3000F0E0808181608083E1E8F0E010828081D1
:100E400082608083808181608083E0E8F0E080813F
:100E500081608083E1EBF0E0808184608083E0EB5F
:100E6000F0E0808181608083EAE7F0E08081846047
:100E700080838081826080838081816080838081A3
:100E8000806880831092C10008958E3008F08E50E3
:100E900087702091060190E4299F90011124822BF4
:100EA00080937C0080917A00806480937A008091A6
:100EB0007A0086FDFCCF809178002091790090E047
:100EC000922B0895833081F028F4813099F082309C
:100ED000A1F008958730A9F08830B9F08430D1F4BA
:100EE000809180008F7D03C0809180008F778093F8
:100EF0008000089584B58F7702C084B58F7D84BD4E
:100F000008958091B0008F7703C08091B0008F7DED
:100F10008093B0000895CF93DF9390E0FC01E458F4
:100F2000FF4F2491FC01E057FF4F8491882349F142
:100F300090E0880F991FFC01E255FF4FA591B491F5
:100F40008C559F4FFC01C591D4919FB7611108C08A
:100F5000F8948C91209582238C93888182230AC0F7
:100F6000623051F4F8948C91322F309583238C9316
:100F70008881822B888304C0F8948C91822B8C9377
:100F80009FBFDF91CF9108950F931F93CF93DF936E
:100F90001F92CDB7DEB7282F30E0F901E859FF4F97
:100FA0008491F901E458FF4F1491F901E057FF4F84
:100FB00004910023C1F0882319F0698383DF6981DC
:100FC000E02FF0E0EE0FFF1FEC55FF4FA591B4911D
:100FD0009FB7F8948C91611103C01095812301C0D3
:100FE000812B8C939FBF0F90DF91CF911F910F9119
:100FF00008950895CF93DF93EC0160E08E81C4DF04
:1010000081E090E0FCDE61E08E81BEDF81E090E077
:10101000F6DE60E08E81B8DF84E690E0DF91CF916C
:10102000EECEEF92FF920F931F93CF93DF938C013D
:10103000C0E0D0E0E62EF12CB7010C2E02C0759571
:1010400067950A94E2F76170F801EC0FFD1F878144
:101050009BDF2196C430D10579F7C801DF91CF918C
:101060001F910F91FF90EF90C5CFEF92FF920F93DA
:101070001F93CF93DF938C01C0E0D0E0E62EF12CDC
:10108000B7010C2E02C0759567950A94E2F761705E
:10109000F801EC0FFD1F878177DF2196C830D1055D
:1010A00079F7C801DF91CF911F910F91FF90EF90D9
:1010B000A1CF1F93CF93DF93EC01162F642F8C8168
:1010C00063DF8D818F3F11F060E05EDF8F85612FE0
:1010D00084FF05C0CE01DF91CF911F91C6CF70E094
:1010E00084E0759567958A95E1F7CE019ADF612FC7
:1010F000CE01DF91CF911F9194CF40E0DACF61E034
:10110000FCDF80ED97E07BCE443008F043E0FC014B
:101110002389421710F04FEF420FFC01E40FF11D3D
:101120002489260F2068622FE8CFFC016089262FD2
:101130002460208B6C60E1CF0F931F93CF93DF93DC
:10114000EC01423018F08F8588608F874B8B1C8AAA
:1011500080E48D8B6E8B70E0605C7F4F6F8B222301
:1011600029F0413019F48F8584608F8761E08C818C
:10117000D2DE8D818F3F11F061E0CDDE61E08E81A6
:10118000CADE00E010E08F8584FF03C088E090E0B5
:1011900002C084E090E0081719074CF4FE01E00F4C
:1011A000F11F61E08781B7DE0F5F1F4FECCF80E555
:1011B00093EC25DE60E08C81E7DE60E08E81E4DE8A
:1011C0008D818F3F11F060E0DFDE6F8564FD16C01A
:1011D00063E0CE0126DF84E991E111DE63E0CE0118
:1011E00020DF84E991E10BDE63E0CE011ADF86E9BE
:1011F00090E005DE62E0CE0114DF11C06062CE0136
:101200007CDF84E991E1FBDD6F856062CE0175DFF3
:1012100086E990E0F4DD6F856062CE016EDF6F8558
:101220006062CE016ADF84E0888BCE017EDFCE0172
:1012300066DF82E0898B66E0CE01DF91CF911F915E
:101240000F915BCFCF92EF920F93FC01138212822A
:101250008FE691E09183808364838FEF858346835B
:1012600027830087E186C286138614861586168634
:10127000178620E041E060E1CF010F91EF90CF9021
:101280005BCF41E016DF81E090E00895A1E21A2EE5
:10129000AA1BBB1BFD010DC0AA1FBB1FEE1FFF1F1A
:1012A000A217B307E407F50720F0A21BB30BE40B6A
:1012B000F50B661F771F881F991F1A9469F76095B1
:1012C0007095809590959B01AC01BD01CF0108956B
:1012D000EE0FFF1F0590F491E02D0994CF93DF935B
:1012E0008230910510F482E090E0E0915A02F09192
:1012F0005B0220E030E0A0E0B0E0309739F14081BF
:10130000518148175907B8F04817590771F482817D
:101310009381109729F013969C938E9312972CC06B
:1013200090935B0280935A0227C02115310531F05A
:101330004217530718F0A901DB0101C0EF019A0120
:10134000BD01DF010280F381E02DD7CF21153105EA
:10135000F9F0281B390B2430310580F48A819B81F8
:101360006115710521F0FB019383828304C0909382
:101370005B0280935A02FE01329644C0FE01E20FE6
:10138000F31F8193919322503109398328833AC006
:101390002091580230915902232B41F420910201EF
:1013A000309103013093590220935802209100019B
:1013B000309101012115310541F42DB73EB740911F
:1013C000040150910501241B350BE0915802F09166
:1013D0005902E217F307A0F42E1B3F0B2817390719
:1013E00078F0AC014E5F5F4F2417350748F04E0F81
:1013F0005F1F50935902409358028193919302C00A
:10140000E0E0F0E0CF01DF91CF910895CF93DF933B
:10141000009709F487C0FC01329713821282C091B1
:101420005A02D0915B02209781F420813181280FEC
:10143000391F80915802909159028217930779F5CC
:10144000F0935902E09358026DC0DE0120E030E0D5
:10145000AE17BF0750F412964D915C9113979D0102
:101460004115510509F1DA01F3CFB383A28340811D
:101470005181840F951F8A179B0771F48D919C9160
:101480001197840F951F02969183808312968D91F8
:101490009C911397938382832115310529F4F0934E
:1014A0005B02E0935A023EC0D9011396FC93EE937F
:1014B00012974D915D91A40FB51FEA17FB0779F4C0
:1014C00080819181840F951F0296D90111969C937A
:1014D0008E938281938113969C938E931297E0E072
:1014E000F0E08A819B81009719F0FE01EC01F9CFB1
:1014F000CE01029628813981820F931F20915802D4
:10150000309159022817390769F4309729F410925D
:101510005B0210925A0202C013821282D0935902C7
:10152000C0935802DF91CF910895A0E0B0E0EAE9BE
:10153000FAE0DAC0EC01CB01209711F4CFDEB4C0A1
:10154000FE01E60FF71F9E0122503109E217F30753
:1015500008F4A8C0D9010D911C911197061717071F
:10156000B0F00530110508F49BC0A80144505109A2
:101570004617570708F494C002501109061B170BB1
:10158000019311936D937C93CF0140DF89C05B0180
:10159000A01AB10A4E01800E911EA0915A02B0917C
:1015A0005B02612C712C60E070E0109709F449C077
:1015B000A815B905C9F5ED90FC901197670142E0B7
:1015C000C40ED11CCA14DB0478F147018A189B08A9
:1015D000640142E0C40ED11C1296BC90129713967F
:1015E000AC91B5E0CB16D10440F0B282A3839182D6
:1015F0008082D9018D939C9309C00E5F1F4F0E0D01
:101600001F1DF90111830083EB2DFA2F6115710560
:1016100031F0DB011396FC93EE93129741C0F093E7
:101620005B02E0935A023CC06D917C911197661663
:10163000770608F43B01BD0112960D90BC91A02DD8
:10164000B4CF609158027091590268157905E9F498
:1016500068167906D0F440910001509101014115BE
:10166000510541F44DB75EB76091040170910501D9
:10167000461B570BE417F507A8F4F0935902E093C3
:101680005802F901918380830BC028DE7C0100970A
:1016900049F0A801BE010CD0CE01B8DEC70104C0DC
:1016A000CE0102C080E090E0CDB7DEB7EEE038C0FA
:1016B000FB01DC0102C001900D9241505040D8F76F
:1016C0000895FB01DC0101900D920020E1F70895DF
:1016D000F999FECF92BD81BDF89A992780B50895FA
:1016E0002F923F924F925F926F927F928F929F9232
:1016F000AF92BF92CF92DF92EF92FF920F931F9320
:10170000CF93DF93CDB7DEB7CA1BDB0B0FB6F894D0
:10171000DEBF0FBECDBF09942A88398848885F8410
:101720006E847D848C849B84AA84B984C884DF8081
:10173000EE80FD800C811B81AA81B981CE0FD11D65
:101740000FB6F894DEBF0FBECDBFED01089510E0D7
:10175000CCEBD0E003C0FE01BDDD2296CE3BD1072D
:06176000D1F7F894FFCF61
:1017660000005C028000012000576176653A005B4C
:10177600005D00467265713A0046560052414D5072
:10178600004D45414E4445520053494E45004B4895
:101796007A00000001000200030013000B000C0099
:1017A6000D000100E7030100F401000000005D03E5
:1017B600C404E102FA02EC023C030D0A006E616EFB
:1017C60000696E66006F7666002E0000000000411C
:0417D60009C404003E
:00000001FF
