:100000005EC0000083C0000081C000007FC000000F
:100010007DC000007BC0000079C0000077C00000F8
:1000200075C0000073C0000071C000006FC0000008
:100030006DC000006BC0000069C0000067C0000018
:100040007BC5000063C0000041C3000071C3000015
:100050005DC000005BC0000059C0000057C0000038
:1000600055C0000053C0000000000008000201005D
:100070000003040700000000000000000102040863
:100080001020408001020408102001020408102002
:10009000040404040404040402020202020203032E
:1000A0000303030300000000250028002B000000CC
:1000B0000000240027002A00FA01C60325021124AB
:1000C0001FBECFEFD8E0DEBFCDBF11E0A0E0B1E0B2
:1000D000E4ECF5E102C005900D92AE37B107D9F717
:1000E00022E0AEE7B1E001C01D92A636B207E1F70B
:1000F00010E0CCEBD0E004C02297FE010E949908EA
:10010000C83BD107C9F70ED50C94D60A79CF80E049
:10011000EBD5893E23E0920704F5823391058CF0FC
:100120008A3F91058CF0823C21E0920784F08A3866
:1001300022E092077CF0823593407CF484E090E0EA
:10014000089580E090E0089581E090E0089582E0D5
:1001500090E0089583E090E0089585E090E00895B0
:1001600084EA91E062D48EE991E05FD486EB91E07D
:100170005CD480EB91E059D48AEA91E056C4CF93E5
:10018000DF9326E040E855E260E070E08CEB91E020
:100190003DD2C4E4D1E08881229661E0EBD581E0D4
:1001A000C435D807C1F720E042E060E18EE791E076
:1001B000F2D68EE791E0D2D680E090E00E94970AD6
:1001C00081111BC081E090E00E94970A90E090931B
:1001D0009B0180939A0182E090E00E94970A90E050
:1001E000909399018093980183E090E00E94970A90
:1001F00090E09093970180939601DF91CF910895BD
:1002000067E071E08CEB91E05BD38EE791E0A6D6DE
:1002100040E060E08EE791E0A6D662E171E08EE713
:1002200091E043D380919C0190919D01892BD1F461
:1002300066E171E08EE791E038D380919A01909168
:100240009B0126E0289FB001299F700D112466555F
:100250007E4F8EE791E01BD368E171E08EE791E07D
:1002600024D314C06AE171E08EE791E01ED380913F
:100270009A0190919B0126E0289FB001299F700D63
:10028000112466557E4F8EE791E001D341E060E096
:100290008EE791E068D66CE171E08EE791E005D3DE
:1002A00080919C0190919D010197A1F466E171E01C
:1002B0008EE791E0FAD260919801709199014AE03D
:1002C00050E08EE791E0AAD368E171E08EE791E01B
:1002D000ECD20EC06AE171E08EE791E0E6D2609167
:1002E0009801709199014AE050E08EE791E096D331
:1002F00060E271E08EE791E0D8D280919C0190910C
:100300009D010297C9F466E171E08EE791E0CDD2DC
:10031000809196019091970126E0289FB001299F36
:10032000700D112462567E4F8EE791E0B0D268E1E5
:1003300071E08EE791E0B9C26AE171E08EE791E089
:10034000B4D2809196019091970126E0289FB00148
:10035000299F700D112462567E4F8EE791E097C25F
:1003600010929D0110929C014BDF6AEF70E080E0DB
:1003700090E04FD465E271E08CEB91E0A1D2C7DE52
:100380008130910519F0029781F701D019D081E0F1
:1003900090E090939D0180939C0132DF6AEF70E0C2
:1003A00080E090E036D468E271E08CEB91E088D296
:1003B000AEDE8130910519F0029781F701D0D0DFD0
:1003C00082E090E090939D0180939C0119DF6AEF99
:1003D00070E080E090E01DD46BE271E08CEB91E086
:1003E0006FD295DE8130910519F0029781F7B8DF61
:1003F000CEDFB6DFCF92EF920F936EE271E08AEA22
:1004000091E07AD363E371E080EB91E075D36BE325
:1004100071E086EB91E070D361E471E08EE991E0E8
:100420006BD360E471E084EA91E066D387E0C82E84
:1004300096E0E92E05E024E049E068E08EE791E0EF
:1004400030D60F91EF90CF9008958ACEFC01818D28
:10045000228D90E0805C9F4F821B91098F739927BA
:100460000895FC01918D828D981731F0828DE80FEF
:10047000F11D858D90E008958FEF9FEF0895FC01A9
:10048000918D828D981761F0828DDF01A80FB11DCB
:100490005D968C91928D9F5F9F73928F90E00895EF
:1004A0008FEF9FEF08958DEB93E0892B41F080E073
:1004B00090E0892B21F061D181110C940000089506
:1004C000FC01848DDF01A80FB11DA35ABF4F2C91F1
:1004D000848D90E001968F739927848FA689B789C0
:1004E0002C93A089B1898C9180648C93938D848D99
:1004F000981306C00288F389E02D80818F7D808368
:100500000895CF93DF93EC01888D8823C1F0EA89A9
:10051000FB89808185FD05C0A889B9898C9186FDFC
:100520000EC00FB607FCF5CF808185FFF2CFA889FA
:10053000B9898C9185FFEDCFCE01C2DFE8CFDF9185
:10054000CF910895CF92DF92FF920F931F93CF9395
:10055000DF931F92CDB7DEB76C0181E0D6015896CC
:100560008C9358975B969C915B975C968C915C976B
:10057000981307C05096ED91FC915197808185FDAD
:100580002DC0F601038D10E00F5F1F4F0F73112771
:10059000F02EF601848DF81210C00FB607FCF9CFCB
:1005A000D6015096ED91FC915197808185FFF1CF56
:1005B000C601698385DF6981ECCF838DE80FF11D6A
:1005C000E35AFF4F6083D6015B960C935B9752967C
:1005D000ED91FC915397808180620CC0D6015696B4
:1005E000ED91FC91579760835096ED91FC91519756
:1005F00080818064808381E090E00F90DF91CF91D3
:100600001F910F91FF90DF90CF900895BF92CF92EE
:10061000DF92EF92FF92CF93DF93EC016A017B01AF
:10062000B22EE889F98982E08083411581EE58076E
:100630006105710599F060E079E08DE390E0A70134
:10064000960153D5215031094109510956954795D5
:1006500037952795211580E1380790F0E889F989C9
:10066000108260E874E88EE190E0A70196013DD524
:1006700021503109410951095695479537952795DC
:10068000EC85FD853083EE85FF852083188EEC890F
:10069000FD89B082EA89FB89808180618083EA8953
:1006A000FB89808188608083EA89FB8980818068FA
:1006B0008083EA89FB8980818F7D8083DF91CF9160
:1006C000FF90EF90DF90CF90BF9008951F920F9210
:1006D0000FB60F9211242F938F939F93EF93FF9355
:1006E000E091CC01F091CD018081E091D201F091B7
:1006F000D30182FD12C090818091D5018F5F8F73ED
:100700002091D601821751F0E091D501F0E0E45438
:10071000FE4F958F8093D50101C08081FF91EF91AD
:100720009F918F912F910F900FBE0F901F90189552
:100730001F920F920FB60F9211242F933F934F9356
:100740005F936F937F938F939F93AF93BF93EF9339
:10075000FF938CEB91E0B4DEFF91EF91BF91AF91ED
:100760009F918F917F916F915F914F913F912F91C9
:100770000F900FBE0F901F9018958CEB91E066DEE6
:1007800021E0892B09F420E0822F08951092BF0107
:100790001092BE0188EE93E0A0E0B0E08093C0012B
:1007A0009093C101A093C201B093C30188E591E089
:1007B0009093BD018093BC0185EC90E09093C901BA
:1007C0008093C80184EC90E09093CB018093CA01A0
:1007D00080EC90E09093CD018093CC0181EC90E08F
:1007E0009093CF018093CE0182EC90E09093D10161
:1007F0008093D00186EC90E09093D3018093D20156
:100800001092D5011092D6011092D7011092D80102
:100810000895CF92DF92EF92FF920F931F93CF93A1
:10082000DF937C016A01EB0100E010E00C151D056F
:1008300071F06991D701ED91FC910190F081E02D6B
:10084000C7010995892B19F00F5F1F4FEFCFC80122
:10085000DF91CF911F910F91FF90EF90DF90CF909C
:1008600008956115710581F0DB010D900020E9F715
:10087000AD0141505109461B570BDC01ED91FC9134
:100880000280F381E02D099480E090E00895DC017E
:10089000ED91FC91DB0114964D915C9115976D9152
:1008A0007C910280F381E02D0994DBCFDC01ED9196
:1008B000FC910190F081E02D099464E671E0D1CFC4
:1008C0000F931F93CF93DF93EC01CBDF8C01CE010D
:1008D000F4DF800F911FDF91CF911F910F91089549
:1008E0008F929F92AF92BF92CF92DF92EF92FF9240
:1008F0000F931F93CF93DF93CDB7DEB7A1970FB6BA
:10090000F894DEBF0FBECDBF7C01C42EE52FCB0116
:10091000D22E19A221E02D1510F02AE0D22E8E0140
:100920000F5D1F4F8D2C912CA12CB12C6C2D7E2F87
:10093000A5019401DAD38C2DD29E80191124015087
:1009400011098A3014F4805D01C0895CF80180834C
:10095000211531054105510521F0C22EE32FCA01B1
:10096000E5CFB801C7017DDFA1960FB6F894DEBFD1
:100970000FBECDBFDF91CF911F910F91FF90EF90F0
:10098000DF90CF90BF90AF909F908F900895CF92BF
:10099000DF92EF92FF920F931F93CF93DF93EC01BF
:1009A0006A017B012115310579F4E881F981019013
:1009B000F081E02D642FDF91CF911F910F91FF9077
:1009C000EF90DF90CF9009942A303105D9F477FF6A
:1009D00018C06DE26BDF8C0144275527BA014C1912
:1009E0005D096E097F092AE0CE017ADF800F911F31
:1009F000DF91CF911F910F91FF90EF90DF90CF90FB
:100A000008952AE0B701A601CE01DF91CF911F9191
:100A10000F91FF90EF90DF90CF9062CF9A01AB01E2
:100A2000662757FD6095762FB2CFFC0180819181BA
:100A30001CC4CF93DF93EC0188819981009709F062
:100A400014D4198218821D821C821B821A82DF91A3
:100A5000CF9108950F931F93CF93DF93EC018B01F8
:100A60006F5F7F4F888199818FD4009731F0998390
:100A700088831B830A8381E001C080E0DF91CF91EE
:100A80001F910F910895CF93DF93EC018881998195
:100A9000892B29F08A819B818617970758F4CE010C
:100AA000D9DF882341F08C819D81892B19F4E8815D
:100AB000F981108281E0DF91CF910895EF92FF924A
:100AC0000F931F93CF93DF93EC017B018A01BA014F
:100AD000DADF811103C0CE01ACDF06C01D830C83B9
:100AE000B701888199811CD5CE01DF91CF911F91EB
:100AF0000F91FF90EF900895FC01118210821382F4
:100B00001282158214826115710551F0FB0101906A
:100B10000020E9F7AF0141505109461B570BCECFDA
:100B200008950895A6D0FDDF2ADBC3E5D2E061DC9D
:100B30002097E9F3B8DCFBCF1F920F920FB60F920C
:100B400011242F933F938F939F93AF93BF938091E3
:100B50005A0290915B02A0915C02B0915D023091CB
:100B6000590223E0230F2D3720F40196A11DB11D5A
:100B700005C026E8230F0296A11DB11D209359023E
:100B800080935A0290935B02A0935C02B0935D0243
:100B900080915E0290915F02A0916002B09161022B
:100BA0000196A11DB11D80935E0290935F02A093F8
:100BB0006002B0936102BF91AF919F918F913F917D
:100BC0002F910F900FBE0F901F9018953FB7F8947C
:100BD00080915E0290915F02A0916002B0916102EB
:100BE00026B5A89B05C02F3F19F00196A11DB11D88
:100BF0003FBF6627782F892F9A2F620F711D811DA5
:100C0000911D42E0660F771F881F991F4A95D1F703
:100C10000895CF92DF92EF92FF92CF93DF936B0113
:100C20007C01D4DFEB01C114D104E104F10479F0BB
:100C30000FD1CCDF6C1B7D0B683E7340A0F381E0CD
:100C4000C81AD108E108F108C851DC4FECCFDF9198
:100C5000CF91FF90EF90DF90CF9008958230910573
:100C600038F0880F991F880F991F05970197F1F7A2
:100C70000895789484B5826084BD84B5816084BD14
:100C800085B5826085BD85B5816085BDEEE6F0E005
:100C9000808181608083E1E8F0E010828081826061
:100CA0008083808181608083E0E8F0E080818160E2
:100CB0008083E1EBF0E0808184608083E0EBF0E012
:100CC000808181608083EAE7F0E0808184608083B6
:100CD0008081826080838081816080838081806860
:100CE00080831092C10008958E3008F08E50877076
:100CF0002091060190E4299F90011124822B80937A
:100D00007C0080917A00806480937A0080917A00E0
:100D100086FDFCCF809178002091790090E0922BA5
:100D20000895833081F028F4813099F08230A1F069
:100D300008958730A9F08830B9F08430D1F48091DB
:100D400080008F7D03C0809180008F77809380002A
:100D5000089584B58F7702C084B58F7D84BD0895D2
:100D60008091B0008F7703C08091B0008F7D809319
:100D7000B0000895CF93DF9390E0FC01E458FF4F5B
:100D80002491FC01E057FF4F8491882349F190E0C2
:100D9000880F991FFC01E255FF4FA591B4918C5526
:100DA0009F4FFC01C591D4919FB7611108C0F89481
:100DB0008C91209582238C93888182230AC0623093
:100DC00051F4F8948C91322F309583238C93888141
:100DD000822B888304C0F8948C91822B8C939FBFC4
:100DE000DF91CF9108950F931F93CF93DF931F92BD
:100DF000CDB7DEB7282F30E0F901E859FF4F8491D5
:100E0000F901E458FF4F1491F901E057FF4F0491A5
:100E10000023C1F0882319F0698383DF6981E02F03
:100E2000F0E0EE0FFF1FEC55FF4FA591B4919FB777
:100E3000F8948C91611103C01095812301C0812B1E
:100E40008C939FBF0F90DF91CF911F910F910895C9
:100E50000895CF93DF93EC0160E08E81C4DF81E0E1
:100E600090E0FCDE61E08E81BEDF81E090E0F6DEA6
:100E700060E08E81B8DF84E690E0DF91CF91EECE26
:100E8000EF92FF920F931F93CF93DF938C01C0E0FB
:100E9000D0E0E62EF12CB7010C2E02C075956795B7
:100EA0000A94E2F76170F801EC0FFD1F87819BDF68
:100EB0002196C430D10579F7C801DF91CF911F91F8
:100EC0000F91FF90EF90C5CFEF92FF920F931F937A
:100ED000CF93DF938C01C0E0D0E0E62EF12CB70178
:100EE0000C2E02C0759567950A94E2F76170F801BF
:100EF000EC0FFD1F878177DF2196C830D10579F788
:100F0000C801DF91CF911F910F91FF90EF90A1CF7A
:100F10001F93CF93DF93EC01162F642F8C8163DF37
:100F20008D818F3F11F060E05EDF8F85612F84FF40
:100F300005C0CE01DF91CF911F91C6CF70E084E054
:100F4000759567958A95E1F7CE019ADF612FCE01FD
:100F5000DF91CF911F9194CF40E0DACF61E0FCDFC9
:100F600080ED97E07BCE443008F043E0FC0123891C
:100F7000421710F04FEF420FFC01E40FF11D2489DE
:100F8000260F2068622FE8CFFC016089262F24609D
:100F9000208B6C60E1CF0F931F93CF93DF93EC0115
:100FA000423018F08F8588608F874B8B1C8A80E4D5
:100FB0008D8B6E8B70E0605C7F4F6F8B222329F0EE
:100FC000413019F48F8584608F8761E08C81D2DE97
:100FD0008D818F3F11F061E0CDDE61E08E81CADE50
:100FE00000E010E08F8584FF03C088E090E002C03D
:100FF00084E090E0081719074CF4FE01E00FF11FA0
:1010000061E08781B7DE0F5F1F4FECCF80E593EC87
:1010100025DE60E08C81E7DE60E08E81E4DE8D819C
:101020008F3F11F060E0DFDE6F8564FD16C063E086
:10103000CE0126DF84E991E111DE63E0CE0120DFFD
:1010400084E991E10BDE63E0CE011ADF86E990E0EE
:1010500005DE62E0CE0114DF11C06062CE017CDFEC
:1010600084E991E1FBDD6F856062CE0175DF86E981
:1010700090E0F4DD6F856062CE016EDF6F856062A7
:10108000CE016ADF84E0888BCE017EDFCE0166DF91
:1010900082E0898B66E0CE01DF91CF911F910F91A5
:1010A0005BCFCF92EF920F93FC011382128289E7FC
:1010B00091E09183808364838FEF858346832783C8
:1010C0000087E186C28613861486158616861786E3
:1010D00020E041E060E1CF010F91EF90CF905BCF36
:1010E00041E016DF81E090E00895A1E21A2EAA1BEC
:1010F000BB1BFD010DC0AA1FBB1FEE1FFF1FA217C8
:10110000B307E407F50720F0A21BB30BE40BF50BC4
:10111000661F771F881F991F1A9469F7609570954D
:10112000809590959B01AC01BD01CF010895EE0F14
:10113000FF1F0590F491E02D0994CF93DF93823047
:10114000910510F482E090E0E0916402F091650274
:1011500020E030E0A0E0B0E0309739F140815181EB
:1011600048175907B8F04817590771F482819381DD
:10117000109729F013969C938E9312972CC09093FE
:1011800065028093640227C02115310531F04217B2
:10119000530718F0A901DB0101C0EF019A01BD015D
:1011A000DF010280F381E02DD7CF21153105F9F061
:1011B000281B390B2430310580F48A819B8161150D
:1011C000710521F0FB019383828304C09093650233
:1011D00080936402FE01329644C0FE01E20FF31FC9
:1011E0008193919322503109398328833AC0209109
:1011F000620230916302232B41F42091020130916D
:101200000301309363022093620220910001309128
:1012100001012115310541F42DB73EB7409104017C
:1012200050910501241B350BE0916202F09163029D
:10123000E217F307A0F42E1B3F0B2817390778F0AD
:10124000AC014E5F5F4F2417350748F04E0F5F1F0C
:1012500050936302409362028193919302C0E0E055
:10126000F0E0CF01DF91CF910895CF93DF93009706
:1012700009F487C0FC01329713821282C091640284
:10128000D0916502209781F420813181280F391F88
:1012900080916202909163028217930779F5F0932F
:1012A0006302E09362026DC0DE0120E030E0AE1721
:1012B000BF0750F412964D915C9113979D01411513
:1012C000510509F1DA01F3CFB383A2834081518143
:1012D000840F951F8A179B0771F48D919C9111972C
:1012E000840F951F02969183808312968D919C9115
:1012F0001397938382832115310529F4F0936502B6
:10130000E09364023EC0D9011396FC93EE931297CA
:101310004D915D91A40FB51FEA17FB0779F4808109
:101320009181840F951F0296D90111969C938E93FB
:101330008281938113969C938E931297E0E0F0E064
:101340008A819B81009719F0FE01EC01F9CFCE0153
:10135000029628813981820F931F20916202309179
:1013600063022817390769F4309729F4109265024F
:101370001092640202C013821282D0936302C0935F
:101380006202DF91CF910895A0E0B0E0E9ECF9E0CE
:10139000DAC0EC01CB01209711F4CFDEB4C0FE011E
:1013A000E60FF71F9E0122503109E217F30708F4F8
:1013B000A8C0D9010D911C91119706171707B0F01D
:1013C0000530110508F49BC0A80144505109461787
:1013D000570708F494C002501109061B170B01931C
:1013E00011936D937C93CF0140DF89C05B01A01AFC
:1013F000B10A4E01800E911EA0916402B091650267
:10140000612C712C60E070E0109709F449C0A815B8
:10141000B905C9F5ED90FC901197670142E0C40E43
:10142000D11CCA14DB0478F147018A189B086401B7
:1014300042E0C40ED11C1296BC9012971396AC9148
:10144000B5E0CB16D10440F0B282A38391828082B2
:10145000D9018D939C9309C00E5F1F4F0E0D1F1D68
:10146000F90111830083EB2DFA2F6115710531F01D
:10147000DB011396FC93EE93129741C0F093650243
:10148000E09364023CC06D917C91119766167706DB
:1014900008F43B01BD0112960D90BC91A02DB4CF74
:1014A000609162027091630268157905E9F468162B
:1014B0007906D0F440910001509101014115510588
:1014C00041F44DB75EB76091040170910501461B70
:1014D000570BE417F507A8F4F0936302E093620258
:1014E000F901918380830BC028DE7C01009749F0CD
:1014F000A801BE010CD0CE01B8DEC70104C0CE01E8
:1015000002C080E090E0CDB7DEB7EEE038C0FB016E
:10151000DC0102C001900D9241505040D8F708956F
:10152000FB01DC0101900D920020E1F70895F9998B
:10153000FECF92BD81BDF89A992780B508952F926C
:101540003F924F925F926F927F928F929F92AF9253
:10155000BF92CF92DF92EF92FF920F931F93CF93A0
:10156000DF93CDB7DEB7CA1BDB0B0FB6F894DEBF37
:101570000FBECDBF09942A88398848885F846E845D
:101580007D848C849B84AA84B984C884DF80EE80A7
:10159000FD800C811B81AA81B981CE0FD11D0FB6B0
:1015A000F894DEBF0FBECDBFED01089510E0CCEB87
:1015B000D0E003C0FE01BDDD2296CE3BD107D1F7BE
:0415C000F894FFCFCD
:1015C400000066028000014C43445F55504441547E
:1015D400450057543A005B005D00200046513A0034
:1015E4002046553A0057540046560046550052418D
:1015F4004D50004D45414E4445520053494E45001F
:101604004B487A00000001000200030013000B00A5
:101614000C000D0000000000A202090426023F0293
:10162400310281020D0A006E616E00696E66006F00
:0E1634007666002E0000000000700809040019
:00000001FF
