:100000005EC0000083C0000081C000007FC000000F
:100010007DC000007BC0000079C0000077C00000F8
:1000200075C0000073C0000071C000006FC0000008
:100030006DC000006BC0000069C0000067C0000018
:10004000D5C6000063C00000AEC40000DEC40000DE
:100050005DC000005BC0000059C0000057C0000038
:1000600055C0000053C0000000000008000201005D
:100070000003040700000000000000000102040863
:100080001020408001020408102001020408102002
:10009000040404040404040402020202020203032E
:1000A0000303030300000000250028002B000000CC
:1000B0000000240027002A00610333059203112465
:1000C0001FBECFEFD8E0DEBFCDBF11E0A0E0B1E0B2
:1000D000EEEFF7E102C005900D92A036B107D9F717
:1000E00022E0A0E6B1E001C01D92A437B207E1F71B
:1000F00010E0CCEBD0E004C02297FE010E94B609CC
:10010000C83BD107C9F768D60C94F30B79CFCF92CF
:10011000DF92EF92FF920F931F93CF93DF93B0D6AE
:100120002091880130918901621B730B6431710544
:100130001CF485E090E0BAC0A3D660938801709368
:10014000890180938A0190938B0180E0EBD6893EF0
:1001500023E0920784F48233910584F08A3F91056D
:1001600084F0823C21E092077CF08A3892407CF453
:10017000C3E0D0E00EC0C5E0D0E00BC0C0E0D0E0EE
:1001800008C0C1E0D0E005C0C2E0D0E002C0C4E0D9
:10019000D0E0E8E6F1E0828193818193919381E060
:1001A000E638F807C1F7D0938701C09386018091A4
:1001B000680190916901EAE6F1E02191319182179D
:1001C000930749F08091840190918501C817D90760
:1001D00009F0AFCF05C021E0E838F20771F71AC087
:1001E0008091820190918301C817D90709F4A1CFAA
:1001F00047D6609364017093650180936601909384
:1002000067011092600110926101109262011092D8
:1002100063014BC035D600916401109165012091B6
:10022000660130916701601B710B820B930B2CE20E
:10023000C22EDD24D394E12CF12C009160011091A9
:1002400061012091620130916301C01AD10AE20A72
:10025000F30AC616D706E806F90608F0B3CF10D69B
:1002600060936401709365018093660190936701C8
:100270008091600190916101A0916201B091630150
:100280004496A11DB11D8F3021E09207A105B10553
:1002900020F08EE091E0A0E0B0E0809360019093C8
:1002A0006101A0936201B0936301CE01DF91CF9110
:1002B0001F910F91FF90EF90DF90CF90089582EB08
:1002C00091E00DD58CEA91E00AD584EC91E007D558
:1002D0008EEB91E004D588EB91E001C5CF93DF93DD
:1002E00026E040E855E260E070E08AEC91E0FBD265
:1002F000CFE2D1E08881229661E05AD681E0CF3307
:10030000D807C1F720E042E060E18CE891E060D7D7
:100310008CE891E040D780E090E00E94B40B81111E
:100320001BC081E090E00E94B40B90E09093A90183
:100330008093A80182E090E00E94B40B90E090933B
:10034000A7018093A60183E090E00E94B40B90E0A7
:100350009093A5018093A401DF91CF9108958CE83B
:1003600091E019D740E060E08CE891E019D767E0B0
:1003700071E08CE891E006D48091AA019091AB01E4
:10038000892BD1F46DE071E08CE891E0FBD3809192
:10039000A8019091A90126E0289FB001299F700D26
:1003A000112468547E4F8CE891E0DED36FE071E059
:1003B0008CE891E0E7D314C061E171E08CE891E052
:1003C000E1D38091A8019091A90126E0289FB00176
:1003D000299F700D112468547E4F8CE891E0C4D39E
:1003E00041E060E08CE891E0DBD663E171E08CE80D
:1003F00091E0C8D38091AA019091AB01019789F453
:100400006DE071E08CE891E0BDD36091A601709140
:10041000A7014AE050E08CE891E05AD46FE071E027
:1004200010C061E171E08CE891E0ACD36091A6016D
:100430007091A7014AE050E08CE891E049D461E175
:1004400071E08CE891E09ED38091AA019091AB017C
:100450000297C9F46DE071E08CE891E093D380914C
:10046000A4019091A50126E0289FB001299F700D5D
:10047000112464557E4F8CE891E076D36FE071E0F3
:100480008CE891E07FC361E171E08CE891E07AD380
:100490008091A4019091A50126E0289FB001299F99
:1004A000700D112464557E4F8CE891E05DC3CF93AD
:1004B000DF93C2E0D0E02BDE8130910569F01CF4BF
:1004C000892B21F1F8CF8230910519F0039769F05B
:1004D000F2CF81E090E002C082E090E09093AB0127
:1004E0008093AA01DF91CF9108958091A801909106
:1004F000A90101979093A9018093A80197FF04C0D7
:10050000D093A901C093A8012ADFD5CF8091A8017B
:100510009091A90101969093A9018093A801039756
:100520009CF31092A9011092A801EECFF0DD81306A
:10053000910551F01CF4892B89F0F8CF8230910598
:1005400041F0039759F1F2CF1092AB011092AA013A
:1005500008959093AB018093AA0108958091A6011C
:100560009091A70101969093A7018093A601E09135
:10057000A401F091A501EE0FFF1FEE0FFF1FE15C3C
:10058000FE4F228133812817390734F4808191810D
:100590009093A7018093A601E2DEC8CF8091A601C7
:1005A0009091A70101979093A7018093A601E091F4
:1005B000A401F091A501EE0FFF1FEE0FFF1FE15CFC
:1005C000FE4F208131818217930734F78281938116
:1005D000DFCFCF93DF93C1E0D0E099DD813091058B
:1005E00059F024F4892B09F446C0F7CF82309105E5
:1005F00041F0039759F0F1CF9093AB018093AA019A
:100600004CC01092AB011092AA0147C08091A40186
:100610009091A501019797FF36C0D093A501C09393
:10062000A4018091A4019091A501880F991F880FC2
:10063000991FFC01E15CFE4F228133814091A601AC
:100640005091A7012417350724F43093A701209374
:10065000A601FC01E15CFE4F808191812091A60101
:100660003091A7012817390724F49093A7018093AC
:10067000A60175DEB2CF8091A4019091A5010196EB
:10068000823091052CF49093A5018093A401C9CFE9
:100690001092A5011092A401C4CFDF91CF910895CB
:1006A0005EDE8091AA019091AB018130910531F01D
:1006B0008230910521F0892B19F4F9CE37CF89CFFB
:1006C0000895CF92EF920F9369E171E088EB91E08A
:1006D0006DD36EE171E08EEB91E068D366E271E07C
:1006E00084EC91E063D36CE271E08CEA91E05ED33C
:1006F0006BE271E082EB91E059D381E090E090935E
:10070000A7018093A60157E0C52E66E0E62E05E01E
:1007100024E049E068E08CE891E0E0D50F91EF90AB
:10072000CF900895CCCDFC01818D228D90E0805C2E
:100730009F4F821B91098F7399270895FC01918D1A
:10074000828D981731F0828DE80FF11D858D90E034
:1007500008958FEF9FEF0895FC01918D828D98177A
:1007600061F0828DDF01A80FB11D5D968C91928D95
:100770009F5F9F73928F90E008958FEF9FEF089592
:100780008AE295E0892B41F080E090E0892B21F00E
:1007900061D181110C9400000895FC01848DDF016A
:1007A000A80FB11DA35ABF4F2C91848D90E00196E4
:1007B0008F739927848FA689B7892C93A089B189D3
:1007C0008C9180648C93938D848D981306C00288DD
:1007D000F389E02D80818F7D80830895CF93DF930F
:1007E000EC01888D8823C1F0EA89FB89808185FD31
:1007F00005C0A889B9898C9186FD0EC00FB607FC8B
:10080000F5CF808185FFF2CFA889B9898C9185FFCA
:10081000EDCFCE01C2DFE8CFDF91CF910895CF9227
:10082000DF92FF920F931F93CF93DF931F92CDB769
:10083000DEB76C0181E0D60158968C9358975B9691
:100840009C915B975C968C915C97981307C050962F
:10085000ED91FC915197808185FD2DC0F601038DAE
:1008600010E00F5F1F4F0F731127F02EF601848DDC
:10087000F81210C00FB607FCF9CFD6015096ED91D3
:10088000FC915197808185FFF1CFC601698385DF97
:100890006981ECCF838DE80FF11DE35AFF4F608330
:1008A000D6015B960C935B975296ED91FC91539712
:1008B000808180620CC0D6015696ED91FC915797CD
:1008C00060835096ED91FC91519780818064808384
:1008D00081E090E00F90DF91CF911F910F91FF90F9
:1008E000DF90CF900895BF92CF92DF92EF92FF9268
:1008F000CF93DF93EC016A017B01B22EE889F9897D
:1009000082E08083411581EE58076105710599F0F9
:1009100060E079E08DE390E0A701960103D52150D6
:100920003109410951095695479537952795211564
:1009300080E1380790F0E889F989108260E874E86E
:100940008EE190E0A7019601EDD4215031094109D3
:1009500051095695479537952795EC85FD85308348
:10096000EE85FF852083188EEC89FD89B082EA89A7
:10097000FB89808180618083EA89FB89808188602E
:100980008083EA89FB89808180688083EA89FB898A
:1009900080818F7D8083DF91CF91FF90EF90DF90FA
:1009A000CF90BF9008951F920F920FB60F9211240F
:1009B0002F938F939F93EF93FF93E091DA01F09140
:1009C000DB018081E091E001F091E10182FD12C044
:1009D00090818091E3018F5F8F732091E4018217F2
:1009E00051F0E091E301F0E0E653FE4F958F8093E4
:1009F000E30101C08081FF91EF919F918F912F9131
:100A00000F900FBE0F901F9018951F920F920FB668
:100A10000F9211242F933F934F935F936F937F9384
:100A20008F939F93AF93BF93EF93FF938AEC91E0E3
:100A3000B4DEFF91EF91BF91AF919F918F917F9124
:100A40006F915F914F913F912F910F900FBE0F903B
:100A50001F9018958AEC91E066DE21E0892B09F45D
:100A600020E0822F08951092CD011092CC0188EEE3
:100A700093E0A0E0B0E08093CE019093CF01A093EB
:100A8000D001B093D1018BE491E09093CB0180939E
:100A9000CA0185EC90E09093D7018093D60184EC55
:100AA00090E09093D9018093D80180EC90E09093EE
:100AB000DB018093DA0181EC90E09093DD0180937B
:100AC000DC0182EC90E09093DF018093DE0186EC04
:100AD00090E09093E1018093E0011092E301109285
:100AE000E4011092E5011092E6010895CF92DF92A1
:100AF000EF92FF920F931F93CF93DF937C016A01D4
:100B0000EB0100E010E00C151D0571F06991D701B3
:100B1000ED91FC910190F081E02DC7010995892BA1
:100B200019F00F5F1F4FEFCFC801DF91CF911F91D9
:100B30000F91FF90EF90DF90CF90089561157105B0
:100B400081F0DB010D900020E9F7AD014150510922
:100B5000461B570BDC01ED91FC910280F381E02DE7
:100B6000099480E090E00895DC01ED91FC91DB01B7
:100B700014964D915C9115976D917C910280F38153
:100B8000E02D0994DBCFDC01ED91FC910190F08127
:100B9000E02D09948F929F92AF92BF92CF92DF92F5
:100BA000EF92FF920F931F93CF93DF93CDB7DEB7F2
:100BB000A1970FB6F894DEBF0FBECDBF7C01C42E47
:100BC000E52FCB01D22E19A221E02D1510F02AE03D
:100BD000D22E8E010F5D1F4F8D2C912CA12CB12C8C
:100BE0006C2D7E2FA50194019DD38C2DD29E801952
:100BF0001124015011098A3014F4805D01C0895C10
:100C0000F8018083211531054105510521F0C22EDF
:100C1000E32FCA01E5CFB801C70190DFA1960FB657
:100C2000F894DEBF0FBECDBFDF91CF911F910F9122
:100C3000FF90EF90DF90CF90BF90AF909F908F90FC
:100C40000895CF92DF92EF92FF920F931F93CF936D
:100C5000DF93EC016A017B012115310579F4E8810C
:100C6000F9810190F081E02D642FDF91CF911F91E8
:100C70000F91FF90EF90DF90CF9009942A303105CB
:100C8000D9F477FF18C06DE27EDF8C014427552729
:100C9000BA014C195D096E097F092AE0CE017ADF9D
:100CA000800F911FDF91CF911F910F91FF90EF90D7
:100CB000DF90CF9008952AE0B701A601CE01DF9121
:100CC000CF911F910F91FF90EF90DF90CF9062CF67
:100CD0009A01AB01662757FD6095762FB2CFFC01D4
:100CE00080819181DFC3CF93DF93EC01888199816B
:100CF000009709F0D7D3198218821D821C821B82AB
:100D00001A82DF91CF9108950F931F93CF93DF93B2
:100D1000EC018B016F5F7F4F8881998152D40097DE
:100D200031F0998388831B830A8381E001C080E0CE
:100D3000DF91CF911F910F910895CF93DF93EC0135
:100D400088819981892B29F08A819B818617970751
:100D500058F4CE01D9DF882341F08C819D81892B05
:100D600019F4E881F981108281E0DF91CF91089533
:100D7000EF92FF920F931F93CF93DF93EC017B01D0
:100D80008A01BA01DADF811103C0CE01ACDF06C0EF
:100D90001D830C83B70188819981DFD4CE01DF9157
:100DA000CF911F910F91FF90EF900895FC01118258
:100DB000108213821282158214826115710551F01E
:100DC000FB0101900020E9F7AF0141505109461B9A
:100DD000570BCECF089508956AD0FDDF7FDAC0ECBF
:100DE000D3E05EDC2097E9F3CBDCFBCF1F920F92C0
:100DF0000FB60F9211242F933F938F939F93AF932E
:100E0000BF938091680290916902A0916A02B091AB
:100E10006B023091670223E0230F2D3720F40196F7
:100E2000A11DB11D05C026E8230F0296A11DB11D0D
:100E3000209367028093680290936902A0936A02EC
:100E4000B0936B0280916C0290916D02A0916E0242
:100E5000B0916F020196A11DB11D80936C02909319
:100E60006D02A0936E02B0936F02BF91AF919F91FC
:100E70008F913F912F910F900FBE0F901F9018955B
:100E80002FB7F894609168027091690280916A02AC
:100E900090916B022FBF08958230910538F0880F32
:100EA000991F880F991F05970197F1F70895789476
:100EB00084B5826084BD84B5816084BD85B582605F
:100EC00085BD85B5816085BDEEE6F0E080818160FD
:100ED0008083E1E8F0E010828081826080838081FD
:100EE00081608083E0E8F0E0808181608083E1EBD5
:100EF000F0E0808184608083E0EBF0E080818160BD
:100F00008083EAE7F0E08081846080838081826072
:100F1000808380818160808380818068808310925B
:100F2000C10008958E3008F08E5087702091060120
:100F300090E4299F90011124822B80937C00809162
:100F40007A00806480937A0080917A0086FDFCCFDD
:100F5000809178002091790090E0922B0895833061
:100F600081F028F4813099F08230A1F00895873023
:100F7000A9F08830B9F08430D1F4809180008F7D61
:100F800003C0809180008F7780938000089584B59E
:100F90008F7702C084B58F7D84BD08958091B000A5
:100FA0008F7703C08091B0008F7D8093B00008954B
:100FB000CF93DF9390E0FC01E458FF4F2491FC01B4
:100FC000E057FF4F8491882349F190E0880F991FE3
:100FD000FC01E255FF4FA591B4918C559F4FFC0148
:100FE000C591D4919FB7611108C0F8948C91209558
:100FF00082238C93888182230AC0623051F4F89452
:101000008C91322F309583238C938881822B888317
:1010100004C0F8948C91822B8C939FBFDF91CF9169
:1010200008950F931F93CF93DF931F92CDB7DEB731
:10103000282F30E0F901E859FF4F8491F901E45875
:10104000FF4F1491F901E057FF4F04910023C1F0C5
:10105000882319F0698383DF6981E02FF0E0EE0FC8
:10106000FF1FEC55FF4FA591B4919FB7F8948C9159
:10107000611103C01095812301C0812B8C939FBF08
:101080000F90DF91CF911F910F910895CF93DF9330
:10109000EC0160E08E81C5DF81E090E0FDDE61E083
:1010A0008E81BFDF81E090E0F7DE60E08E81B9DF06
:1010B00084E690E0DF91CF91EFCEEF92FF920F9315
:1010C0001F93CF93DF938C01C0E0D0E0E62EF12C8C
:1010D000B7010C2E02C0759567950A94E2F761700E
:1010E000F801EC0FFD1F87819CDF2196C430D105EC
:1010F00079F7C801DF91CF911F910F91FF90EF9089
:10110000C5CFEF92FF920F931F93CF93DF938C0184
:10111000C0E0D0E0E62EF12CB7010C2E02C0759590
:1011200067950A94E2F76170F801EC0FFD1F878163
:1011300078DF2196C830D10579F7C801DF91CF91CA
:101140001F910F91FF90EF90A1CF1F93CF93DF934B
:10115000EC01162F642F8C8164DF8D818F3F11F09D
:1011600060E05FDF8F85612F84FF05C0CE01DF91D6
:10117000CF911F91C6CF70E084E0759567958A95F1
:10118000E1F7CE019ADF612FCE01DF91CF911F9160
:1011900094CF40E0DACF61E0FCDF80ED97E07CCED9
:1011A000443008F043E0FC012389421710F04FEF70
:1011B000420FFC01E40FF11D2489260F2068622FE5
:1011C000E8CFFC016089262F2460208B6C60E1CF82
:1011D0000F931F93CF93DF93EC01423018F08F856C
:1011E00088608F874B8B1C8A80E48D8B6E8B70E0C0
:1011F000605C7F4F6F8B222329F0413019F48F857B
:1012000084608F8761E08C81D3DE8D818F3F11F008
:1012100061E0CEDE61E08E81CBDE00E010E08F8504
:1012200084FF03C088E090E002C084E090E00817EB
:1012300019074CF4FE01E00FF11F61E08781B8DE71
:101240000F5F1F4FECCF80E593EC26DE60E08C81D2
:10125000E8DE60E08E81E5DE8D818F3F11F060E099
:10126000E0DE6F8564FD16C063E0CE0126DF84E911
:1012700091E112DE63E0CE0120DF84E991E10CDE32
:1012800063E0CE011ADF86E990E006DE62E0CE017F
:1012900014DF11C06062CE017CDF84E991E1FCDDE6
:1012A0006F856062CE0175DF86E990E0F5DD6F85C0
:1012B0006062CE016EDF6F856062CE016ADF84E01E
:1012C000888BCE017EDFCE0166DF82E0898B66E00F
:1012D000CE01DF91CF911F910F915BCFCF92EF9213
:1012E0000F93FC01138212828BE591E0918380833E
:1012F00064838FEF8583468327830087E186C286D8
:101300001386148615861686178620E041E060E174
:10131000CF010F91EF90CF905BCF41E016DF81E0DE
:1013200090E00895A1E21A2EAA1BBB1BFD010DC07F
:10133000AA1FBB1FEE1FFF1FA217B307E407F50785
:1013400020F0A21BB30BE40BF50B661F771F881F61
:10135000991F1A9469F760957095809590959B01F7
:10136000AC01BD01CF010895EE0FFF1F0590F49170
:10137000E02D0994CF93DF938230910510F482E041
:1013800090E0E0917202F091730220E030E0A0E082
:10139000B0E0309739F14081518148175907B8F0D2
:1013A0004817590771F482819381109729F0139699
:1013B0009C938E9312972CC0909373028093720229
:1013C00027C02115310531F04217530718F0A90144
:1013D000DB0101C0EF019A01BD01DF010280F38151
:1013E000E02DD7CF21153105F9F0281B390B24301A
:1013F000310580F48A819B816115710521F0FB0123
:101400009383828304C09093730280937202FE01DF
:10141000329644C0FE01E20FF31F81939193225054
:101420003109398328833AC02091700230917102CA
:10143000232B41F42091020130910301309371027A
:101440002093700220910001309101012115310596
:1014500041F42DB73EB74091040150910501241B82
:10146000350BE0917002F0917102E217F307A0F4DE
:101470002E1B3F0B2817390778F0AC014E5F5F4FEA
:101480002417350748F04E0F5F1F509371024093A9
:1014900070028193919302C0E0E0F0E0CF01DF9110
:1014A000CF910895CF93DF93009709F487C0FC0193
:1014B000329713821282C0917202D09173022097E8
:1014C00081F420813181280F391F80917002909121
:1014D00071028217930779F5F0937102E09370021D
:1014E0006DC0DE0120E030E0AE17BF0750F4129669
:1014F0004D915C9113979D014115510509F1DA0158
:10150000F3CFB383A28340815181840F951F8A1743
:101510009B0771F48D919C911197840F951F0296F2
:101520009183808312968D919C91139793838283EC
:101530002115310529F4F0937302E09372023EC045
:10154000D9011396FC93EE9312974D915D91A40FE0
:10155000B51FEA17FB0779F480819181840F951FED
:101560000296D90111969C938E9382819381139652
:101570009C938E931297E0E0F0E08A819B81009724
:1015800019F0FE01EC01F9CFCE01029628813981D4
:10159000820F931F20917002309171022817390732
:1015A00069F4309729F4109273021092720202C00B
:1015B00013821282D0937102C0937002DF91CF9197
:1015C0000895A0E0B0E0E6EEFAE0DAC0EC01CB016D
:1015D000209711F4CFDEB4C0FE01E60FF71F9E0185
:1015E00022503109E217F30708F4A8C0D9010D9180
:1015F0001C91119706171707B0F00530110508F474
:101600009BC0A801445051094617570708F494C0DD
:1016100002501109061B170B019311936D937C93D4
:10162000CF0140DF89C05B01A01AB10A4E01800ED4
:10163000911EA0917202B0917302612C712C60E036
:1016400070E0109709F449C0A815B905C9F5ED90E7
:10165000FC901197670142E0C40ED11CCA14DB0450
:1016600078F147018A189B08640142E0C40ED11C3E
:101670001296BC9012971396AC91B5E0CB16D1049C
:1016800040F0B282A38391828082D9018D939C9392
:1016900009C00E5F1F4F0E0D1F1DF901118300833E
:1016A000EB2DFA2F6115710531F0DB011396FC93D8
:1016B000EE93129741C0F0937302E09372023CC024
:1016C0006D917C9111976616770608F43B01BD0178
:1016D00012960D90BC91A02DB4CF609170027091C4
:1016E000710268157905E9F468167906D0F440911D
:1016F0000001509101014115510541F44DB75EB70C
:101700006091040170910501461B570BE417F50722
:10171000A8F4F0937102E0937002F9019183808341
:101720000BC028DE7C01009749F0A801BE010CD057
:10173000CE01B8DEC70104C0CE0102C080E090E057
:10174000CDB7DEB7EEE038C0FB01DC0102C001908E
:101750000D9241505040D8F70895FB01DC010190F3
:101760000D920020E1F70895F999FECF92BD81BD59
:10177000F89A992780B508952F923F924F925F92E1
:101780006F927F928F929F92AF92BF92CF92DF9291
:10179000EF92FF920F931F93CF93DF93CDB7DEB7F6
:1017A000CA1BDB0B0FB6F894DEBF0FBECDBF09948A
:1017B0002A88398848885F846E847D848C849B84E1
:1017C000AA84B984C884DF80EE80FD800C811B81EF
:1017D000AA81B981CE0FD11D0FB6F894DEBF0FBE1E
:1017E000CDBFED01089510E0CCEBD0E003C0FE01C9
:0E17F000BDDD2296CE3BD107D1F7F894FFCF96
:1017FE0000007402800001576176653A005B005D5F
:10180E00002000467265713A0052414D50004D4520
:10181E00414E4445520053494E45004B487A000014
:10182E000001000200030013000B000C000D00016C
:10183E0000E7030100F401000000000F0476059399
:10184E0003AC039E03EE03000000008D0976050035
:00000001FF
