:100000005DC0000080C000007EC000007CC0000019
:100010007AC0000078C0000076C0000074C0000004
:1000200072C0000070C000006EC000006CC0000014
:100030006AC0000068C0000066C0000064C0000024
:1000400094C2000060C000005EC000005CC0000000
:100050005AC0000058C0000056C0000054C0000044
:1000600052C0000050C00000000000080002010063
:100070000003040700000000000000000102040863
:100080001020408001020408102001020408102002
:10009000040404040404040402020202020203032E
:1000A0000303030300000000250028002B000000CC
:1000B0000000240027002A000701280111241FBE88
:1000C000CFEFD8E0DEBFCDBF11E0A0E0B1E0ECEBB8
:1000D000FFE002C005900D92A633B107D9F721E0E9
:1000E000A6E3B1E001C01D92A537B207E1F710E029
:1000F000CAEBD0E003C02297FE0117D5C83BD10759
:10010000D1F728D24FC77CCFCF93DF93CEE1D1E098
:100110008881229661E02AD381E0CE32D807C1F7E8
:1001200020E042E060E186E391E031D486E391E0B3
:1001300011D480E090E0F7D690E090935501809341
:100140005401892BC1F481E090E0EDD690E09093CA
:1001500053018093520182E090E0E5D690E09093C5
:1001600051018093500183E090E0DDD690E09093C0
:100170004F0180934E01DF91CF91089541E060E0FF
:1001800086E391E0ECD360915201709153014AE013
:1001900050E086E391E048D141E063E086E391E0FE
:1001A000DED360915001709151014AE050E086E346
:1001B00091E03AD141E066E086E391E0D0D36091EE
:1001C0004E0170914F014AE050E086E391E02CD15E
:1001D00041E06CE086E391E0C2D386E090E0A3D6F4
:1001E0004AE050E0682F86E391E031D140E06CE0D6
:1001F00086E391E0B4D34AE050E068E070E086E343
:1002000091E012D168EE73E080E090E01BC2CF92E3
:10021000EF920F9366E071E086E591E085D16DE0A5
:1002200071E08CE591E080D167E171E082E691E0D8
:100230007BD187E0C82E96E0E92E05E024E049E076
:1002400068E086E391E029D40F91EF90CF90089574
:1002500082E691E002D18CE591E0FFD086E591E065
:10026000FCC0CF92DF92EF92FF920F931F93CF9338
:10027000DF937C016A01EB0100E010E00C151D0525
:1002800071F06991D701ED91FC910190F081E02D21
:10029000C7010995892B19F00F5F1F4FEFCFC801D8
:1002A000DF91CF911F910F91FF90EF90DF90CF9052
:1002B00008956115710581F0DB010D900020E9F7CB
:1002C000AD0141505109461B570BDC01ED91FC91EA
:1002D0000280F381E02D099480E090E00895DC0134
:1002E000ED91FC910190F081E02D09948F929F9205
:1002F000AF92BF92CF92DF92EF92FF920F931F9334
:10030000CF93DF93CDB7DEB7A1970FB6F894DEBFDA
:100310000FBECDBF7C01C42EE52FCB01D22E19A27A
:1003200021E02D1510F02AE0D22E8E010F5D1F4F17
:100330008D2C912CA12CB12C6C2D7E2FA50194011C
:10034000D0D38C2DD29E80191124015011098A30EE
:1003500014F4805D01C0895CF801808321153105AA
:100360004105510521F0C22EE32FCA01E5CFB801A6
:10037000C7019FDFA1960FB6F894DEBF0FBECDBFB9
:10038000DF91CF911F910F91FF90EF90DF90CF9071
:10039000BF90AF909F908F900895CF92DF92EF9291
:1003A000FF920F931F93CF93DF93EC016A017B01C0
:1003B0002115310579F4E881F9810190F081E02D72
:1003C000642FDF91CF911F910F91FF90EF90DF90FD
:1003D000CF9009942A303105D9F477FF18C06DE227
:1003E0007EDF8C0144275527BA014C195D096E093F
:1003F0007F092AE0CE017ADF800F911FDF91CF9134
:100400001F910F91FF90EF90DF90CF9008952AE019
:10041000B701A601CE01DF91CF911F910F91FF90FF
:10042000EF90DF90CF9062CF9A01AB01662757FD26
:100430006095762FB2CF2115310541F4DC01ED91A5
:10044000FC910190F081E02D642F09944FCF9A0127
:10045000462F50E060E070E0EECFFC01808191819A
:1004600000C4CF93DF93EC0188819981009709F054
:10047000F8D3198218821D821C821B821A82DF9196
:10048000CF9108950F931F93CF93DF93EC018B01CE
:100490006F5F7F4F8881998173D4009731F0998382
:1004A00088831B830A8381E001C080E0DF91CF91C4
:1004B0001F910F910895CF93DF93EC01888199816B
:1004C000892B29F08A819B818617970758F4CE01E2
:1004D000D9DF882341F08C819D81892B19F4E88133
:1004E000F981108281E0DF91CF910895EF92FF9220
:1004F0000F931F93CF93DF93EC017B018A01BA0125
:10050000DADF811103C0CE01ACDF06C01D830C838E
:10051000B7018881998100D5CE01DF91CF911F91DC
:100520000F91FF90EF900895FC01118210821382C9
:100530001282158214826115710551F0FB01019040
:100540000020E9F7AF0141505109461B570BCECFB0
:1005500008950895A7D0FDDFD7DDC0E0D0E00EDE1E
:100560002097E9F30E940000FACF1F920F920FB676
:100570000F9211242F933F938F939F93AF93BF9329
:100580008091690190916A01A0916B01B0916C0119
:100590003091680123E0230F2D3720F40196A11D2F
:1005A000B11D05C026E8230F0296A11DB11D2093A1
:1005B00068018093690190936A01A0936B01B093E5
:1005C0006C0180916D0190916E01A0916F01B091CD
:1005D00070010196A11DB11D80936D0190936E0174
:1005E000A0936F01B0937001BF91AF919F918F91D4
:1005F0003F912F910F900FBE0F901F9018953FB70E
:10060000F89480916D0190916E01A0916F01B0916D
:10061000700126B5A89B05C02F3F19F00196A11DBA
:10062000B11D3FBF6627782F892F9A2F620F711D4A
:10063000811D911D42E0660F771F881F991F4A9503
:10064000D1F70895CF92DF92EF92FF92CF93DF938D
:100650006B017C01D4DFEB01C114D104E104F1048E
:1006600079F0F2D0CCDF6C1B7D0B683E7340A0F3B9
:1006700081E0C81AD108E108F108C851DC4FECCF7D
:10068000DF91CF91FF90EF90DF90CF90089582306F
:10069000910538F0880F991F880F991F05970197CA
:1006A000F1F70895789484B5826084BD84B5816043
:1006B00084BD85B5826085BD85B5816085BDEEE66A
:1006C000F0E0808181608083E1E8F0E01082808149
:1006D00082608083808181608083E0E8F0E08081B7
:1006E00081608083E1EBF0E0808184608083E0EBD7
:1006F000F0E0808181608083EAE7F0E080818460BF
:10070000808380818260808380818160808380811A
:10071000806880831092C1000895833081F028F4AE
:10072000813099F08230A1F008958730A9F08830A7
:10073000B9F08430D1F4809180008F7D03C0809126
:1007400080008F7780938000089584B58F7702C0F2
:1007500084B58F7D84BD08958091B0008F7703C0EC
:100760008091B0008F7D8093B0000895CF93DF9388
:1007700090E0FC01E458FF4F2491FC01E057FF4F4B
:100780008491882349F190E0880F991FFC01E2557C
:10079000FF4FA591B4918C559F4FFC01C591D49109
:1007A0009FB7611108C0F8948C91209582238C9397
:1007B000888182230AC0623051F4F8948C91322FE0
:1007C000309583238C938881822B888304C0F8948E
:1007D0008C91822B8C939FBFDF91CF9108950F93C3
:1007E0001F93CF93DF931F92CDB7DEB7282F30E052
:1007F000F901E859FF4F8491F901E458FF4F149132
:10080000F901E057FF4F04910023C1F0882319F04C
:10081000698383DF6981E02FF0E0EE0FFF1FEC5565
:10082000FF4FA591B4919FB7F8948C91611103C0CB
:100830001095812301C0812B8C939FBF0F90DF9176
:10084000CF911F910F9108950895CF93DF93EC01FD
:1008500060E08E81C4DF81E090E019DF61E08E818D
:10086000BEDF81E090E013DF60E08E81B8DF84E6D8
:1008700090E0DF91CF910BCFEF92FF920F931F93F8
:10088000CF93DF938C01C0E0D0E0E62EF12CB701CE
:100890000C2E02C0759567950A94E2F76170F80115
:1008A000EC0FFD1F87819BDF2196C430D10579F7BE
:1008B000C801DF91CF911F910F91FF90EF90C5CFAD
:1008C000EF92FF920F931F93CF93DF938C01C0E0C1
:1008D000D0E0E62EF12CB7010C2E02C0759567957D
:1008E0000A94E2F76170F801EC0FFD1F878177DF52
:1008F0002196C830D10579F7C801DF91CF911F91BA
:100900000F91FF90EF90A1CF1F93CF93DF93EC0156
:10091000162F642F8C8163DF8D818F3F11F060E093
:100920005EDF8F85612F84FF05C0CE01DF91CF91FF
:100930001F91C6CF70E084E0759567958A95E1F7C1
:10094000CE019ADF612FCE01DF91CF911F9194CF1D
:1009500040E0DACF61E0FCDF80ED97E098CE4430F4
:1009600008F043E0FC012389421710F04FEF420FDB
:10097000FC01E40FF11D2489260F2068622FE8CFC7
:10098000FC016089262F2460208B6C60E1CF0F93DF
:100990001F93CF93DF93EC01423018F08F8588606E
:1009A0008F874B8B1C8A80E48D8B6E8B70E0605C34
:1009B0007F4F6F8B222329F0413019F48F8584609B
:1009C0008F8761E08C81D2DE8D818F3F11F061E0F5
:1009D000CDDE61E08E81CADE00E010E08F8584FF0D
:1009E00003C088E090E002C084E090E00817190797
:1009F0004CF4FE01E00FF11F61E08781B7DE0F5F6D
:100A00001F4FECCF80E593EC42DE60E08C81E7DEA7
:100A100060E08E81E4DE8D818F3F11F060E0DFDEEB
:100A20006F8564FD16C063E0CE0126DF84E991E1A5
:100A30002EDE63E0CE0120DF84E991E128DE63E071
:100A4000CE011ADF86E990E022DE62E0CE0114DFFB
:100A500011C06062CE017CDF84E991E118DE6F8510
:100A60006062CE0175DF86E990E011DE6F8560621D
:100A7000CE016EDF6F856062CE016ADF84E0888B15
:100A8000CE017EDFCE0166DF82E0898B66E0CE019B
:100A9000DF91CF911F910F915BCFCF92EF920F9388
:100AA000FC011382128282E391E09183808364834C
:100AB0008FEF8583468327830087E186C28613866E
:100AC000148615861686178620E041E060E1CF0186
:100AD0000F91EF90CF905BCF41E016DF81E090E087
:100AE0000895A1E21A2EAA1BBB1BFD010DC0AA1F6F
:100AF000BB1FEE1FFF1FA217B307E407F50720F087
:100B0000A21BB30BE40BF50B661F771F881F991F01
:100B10001A9469F760957095809590959B01AC014A
:100B2000BD01CF010895EE0FFF1F0590F491E02D58
:100B30000994CF93DF938230910510F482E090E026
:100B4000E0917301F091740120E030E0A0E0B0E0AA
:100B5000309739F14081518148175907B8F048174B
:100B6000590771F482819381109729F013969C9311
:100B70008E9312972CC0909374018093730127C0B9
:100B80002115310531F04217530718F0A901DB0197
:100B900001C0EF019A01BD01DF010280F381E02D68
:100BA000D7CF21153105F9F0281B390B2430310539
:100BB00080F48A819B816115710521F0FB0193838B
:100BC000828304C09093740180937301FE01329676
:100BD00044C0FE01E20FF31F81939193225031092B
:100BE000398328833AC02091710130917201232BFF
:100BF00041F420910201309103013093720120935E
:100C0000710120910001309101012115310541F45C
:100C10002DB73EB74091040150910501241B350BBF
:100C2000E0917101F0917201E217F307A0F42E1B1D
:100C30003F0B2817390778F0AC014E5F5F4F241740
:100C4000350748F04E0F5F1F5093720140937101BA
:100C50008193919302C0E0E0F0E0CF01DF91CF916A
:100C60000895CF93DF93009709F487C0FC01329772
:100C700013821282C0917301D0917401209781F484
:100C800020813181280F391F80917101909172016B
:100C90008217930779F5F0937201E09371016DC0AB
:100CA000DE0120E030E0AE17BF0750F412964D9100
:100CB0005C9113979D014115510509F1DA01F3CFBC
:100CC000B383A28340815181840F951F8A179B07AC
:100CD00071F48D919C911197840F951F02969183C9
:100CE000808312968D919C91139793838283211513
:100CF000310529F4F0937401E09373013EC0D901EA
:100D00001396FC93EE9312974D915D91A40FB51F2E
:100D1000EA17FB0779F480819181840F951F029671
:100D2000D90111969C938E938281938113969C9303
:100D30008E931297E0E0F0E08A819B81009719F092
:100D4000FE01EC01F9CFCE01029628813981820F94
:100D5000931F20917101309172012817390769F4AE
:100D6000309729F4109274011092730102C013821B
:100D70001282D0937201C0937101DF91CF910895D7
:100D8000A0E0B0E0E5ECF6E0DAC0EC01CB012097A2
:100D900011F4CFDEB4C0FE01E60FF71F9E01225012
:100DA0003109E217F30708F4A8C0D9010D911C918D
:100DB000119706171707B0F00530110508F49BC00E
:100DC000A801445051094617570708F494C002502F
:100DD0001109061B170B019311936D937C93CF019F
:100DE00040DF89C05B01A01AB10A4E01800E911E3E
:100DF000A0917301B0917401612C712C60E070E0DE
:100E0000109709F449C0A815B905C9F5ED90FC90F3
:100E10001197670142E0C40ED11CCA14DB0478F1BB
:100E200047018A189B08640142E0C40ED11C129647
:100E3000BC9012971396AC91B5E0CB16D10440F05C
:100E4000B282A38391828082D9018D939C9309C041
:100E50000E5F1F4F0E0D1F1DF90111830083EB2D37
:100E6000FA2F6115710531F0DB011396FC93EE93B7
:100E7000129741C0F0937401E09373013CC06D91EF
:100E80007C9111976616770608F43B01BD01129616
:100E90000D90BC91A02DB4CF609171017091720141
:100EA00068157905E9F468167906D0F440910001D7
:100EB000509101014115510541F44DB75EB7609164
:100EC000040170910501461B570BE417F507A8F4C0
:100ED000F0937201E0937101F901918380830BC05B
:100EE00028DE7C01009749F0A801BE010CD0CE019C
:100EF000B8DEC70104C0CE0102C080E090E0CDB7EB
:100F0000DEB7EEE038C0FB01DC0102C001900D92BB
:100F100041505040D8F70895FB01DC0101900D923B
:100F20000020E1F70895F999FECF92BD81BDF89AAE
:100F3000992780B508952F923F924F925F926F92BA
:100F40007F928F929F92AF92BF92CF92DF92EF9259
:100F5000FF920F931F93CF93DF93CDB7DEB7CA1BDA
:100F6000DB0B0FB6F894DEBF0FBECDBF09942A8805
:100F7000398848885F846E847D848C849B84AA84AD
:100F8000B984C884DF80EE80FD800C811B81AA813A
:100F9000B981CE0FD11D0FB6F894DEBF0FBECDBF05
:100FA000ED01089510E0CAEBD0E003C0FE01BDDD05
:0C0FB0002296CC3BD107D1F7F894FFCF7C
:100FBC000000750180005B52414D505D005B4D455A
:100FCC00414E4445525D005B53494E455D00000067
:100FDC0001000200030013000B000C000D000000C8
:060FEC0000006C0531015C
:00000001FF
