:100000005DC0000080C000007EC000007CC0000019
:100010007AC0000078C0000076C0000074C0000004
:1000200072C0000070C000006EC000006CC0000014
:100030006AC0000068C0000066C0000064C0000024
:1000400066C2000060C000005EC000005CC000002E
:100050005AC0000058C0000056C0000054C0000044
:1000600052C0000050C00000000000080002010063
:100070000003040700000000000000000102040863
:100080001020408001020408102001020408102002
:10009000040404040404040402020202020203032E
:1000A0000303030300000000250028002B000000CC
:1000B0000000240027002A00DD00FE0011241FBEDE
:1000C000CFEFD8E0DEBFCDBF11E0A0E0B1E0EAE8BD
:1000D000FFE002C005900D92A832B107D9F721E0E8
:1000E000A8E2B1E001C01D92AF35B207E1F710E020
:1000F000CAEBD0E003C02297FE0106D5C83BD1076A
:10010000D1F7FAD136C77CCF80E0D9D2893E23E03F
:10011000920704F5823391058CF08A3F91058CF0AB
:10012000823C21E0920784F08A3822E092077CF03A
:10013000823593407CF484E090E0089580E090E084
:10014000089581E090E0089582E090E0089583E0D2
:1001500090E0089585E090E0089520E042E060E1BD
:1001600088E291E003D488E291E0E3D340E060E0EC
:1001700088E291E0E3D34AE050E063E070E088E297
:1001800091E036D141E060E088E291E0D7D366E4C7
:1001900071E088E291E079C040E068E088E291E0B7
:1001A000CDD3B2DF4AE050E0BC0188E291E020D13B
:1001B00068EE73E080E090E017C2CF92EF920F9369
:1001C00067E071E080E491E081D16EE071E086E467
:1001D00091E07CD169E171E08CE491E077D187E036
:1001E000C82E96E0E92E05E024E049E068E088E2C8
:1001F00091E042D40F91EF90CF9008958CE491E07C
:10020000FED086E491E0FBD080E491E0F8C0CF928C
:10021000DF92EF92FF920F931F93CF93DF937C01B6
:100220006A01EB0100E010E00C151D0571F0699109
:10023000D701ED91FC910190F081E02DC701099566
:10024000892B19F00F5F1F4FEFCFC801DF91CF91BE
:100250001F910F91FF90EF90DF90CF90089561155F
:10026000710581F0DB010D900020E9F7AD014150EF
:100270005109461B570BDC01ED91FC910280F38183
:10028000E02D099480E090E00895DC01ED91FC916F
:10029000DB0114964D915C9115976D917C910280D4
:1002A000F381E02D0994DC01ED91FC910190F08146
:1002B000E02D09948F929F92AF92BF92CF92DF92DE
:1002C000EF92FF920F931F93CF93DF93CDB7DEB7DB
:1002D000A1970FB6F894DEBF0FBECDBF7C01C42E30
:1002E000E52FCB01D22E19A221E02D1510F02AE026
:1002F000D22E8E010F5D1F4F8D2C912CA12CB12C75
:100300006C2D7E2FA5019401DBD38C2DD29E8019FC
:100310001124015011098A3014F4805D01C0895CF8
:10032000F8018083211531054105510521F0C22EC8
:10033000E32FCA01E5CFB801C70191DFA1960FB63F
:10034000F894DEBF0FBECDBFDF91CF911F910F910B
:10035000FF90EF90DF90CF90BF90AF909F908F90E5
:100360000895CF92DF92EF92FF920F931F93CF9356
:10037000DF93EC016A017B012115310579F4E881F5
:10038000F9810190F081E02D642FDF91CF911F91D1
:100390000F91FF90EF90DF90CF9009942A303105B4
:1003A000D9F477FF18C06DE27EDF8C014427552712
:1003B000BA014C195D096E097F092AE0CE017ADF86
:1003C000800F911FDF91CF911F910F91FF90EF90C0
:1003D000DF90CF9008952AE0B701A601CE01DF910A
:1003E000CF911F910F91FF90EF90DF90CF9062CF50
:1003F0009A01AB01662757FD6095762FB2CFFC01BD
:10040000808191811DC4CF93DF93EC018881998114
:10041000009709F015D4198218821D821C821B8254
:100420001A82DF91CF9108950F931F93CF93DF939B
:10043000EC018B016F5F7F4F8881998190D4009789
:1004400031F0998388831B830A8381E001C080E0B7
:10045000DF91CF911F910F910895CF93DF93EC011E
:1004600088819981892B29F08A819B81861797073A
:1004700058F4CE01D9DF882341F08C819D81892BEE
:1004800019F4E881F981108281E0DF91CF9108951C
:10049000EF92FF920F931F93CF93DF93EC017B01B9
:1004A0008A01BA01DADF811103C0CE01ACDF06C0D8
:1004B0001D830C83B701888199811DD5CE01DF9101
:1004C000CF911F910F91FF90EF900895FC01118241
:1004D000108213821282158214826115710551F007
:1004E000FB0101900020E9F7AF0141505109461B83
:1004F000570BCECF08950895A7D0FDDF2EDEC0E0C4
:10050000D0E04ADE2097E9F30E940000FACF1F9264
:100510000F920FB60F9211242F933F938F939F93B7
:10052000AF93BF938091530190915401A0915501D5
:10053000B09156013091520123E0230F2D3720F462
:100540000196A11DB11D05C026E8230F0296A11D2D
:10055000B11D209352018093530190935401A093B5
:100560005501B09356018091570190915801A09187
:100570005901B0915A010196A11DB11D80935701F7
:1005800090935801A0935901B0935A01BF91AF9134
:100590009F918F913F912F910F900FBE0F901F90C1
:1005A00018953FB7F8948091570190915801A09108
:1005B0005901B0915A0126B5A89B05C02F3F19F0EB
:1005C0000196A11DB11D3FBF6627782F892F9A2F55
:1005D000620F711D811D911D42E0660F771F881FFC
:1005E000991F4A95D1F70895CF92DF92EF92FF922B
:1005F000CF93DF936B017C01D4DFEB01C114D104F5
:10060000E104F10479F00FD1CCDF6C1B7D0B683E67
:100610007340A0F381E0C81AD108E108F108C8517D
:10062000DC4FECCFDF91CF91FF90EF90DF90CF9038
:1006300008958230910538F0880F991F880F991F0F
:1006400005970197F1F70895789484B5826084BD89
:1006500084B5816084BD85B5826085BD85B58160C6
:1006600085BDEEE6F0E0808181608083E1E8F0E026
:100670001082808182608083808181608083E0E855
:10068000F0E0808181608083E1EBF0E08081846034
:100690008083E0EBF0E0808181608083EAE7F0E036
:1006A000808184608083808182608083808181609A
:1006B00080838081806880831092C10008958E308D
:1006C00008F08E5087702091060190E4299F9001D8
:1006D0001124822B80937C0080917A008064809327
:1006E0007A0080917A0086FDFCCF8091780020917D
:1006F000790090E0922B0895833081F028F48130C6
:1007000099F08230A1F008958730A9F08830B9F0CF
:100710008430D1F4809180008F7D03C0809180006F
:100720008F7780938000089584B58F7702C084B559
:100730008F7D84BD08958091B0008F7703C0809134
:10074000B0008F7D8093B0000895CF93DF9390E049
:10075000FC01E458FF4F2491FC01E057FF4F8491C6
:10076000882349F190E0880F991FFC01E255FF4F63
:10077000A591B4918C559F4FFC01C591D4919FB721
:10078000611108C0F8948C91209582238C93888104
:1007900082230AC0623051F4F8948C91322F309544
:1007A00083238C938881822B888304C0F8948C9156
:1007B000822B8C939FBFDF91CF9108950F931F934E
:1007C000CF93DF931F92CDB7DEB7282F30E0F9012A
:1007D000E859FF4F8491F901E458FF4F1491F90152
:1007E000E057FF4F04910023C1F0882319F069837B
:1007F00083DF6981E02FF0E0EE0FFF1FEC55FF4F24
:10080000A591B4919FB7F8948C91611103C0109594
:10081000812301C0812B8C939FBF0F90DF91CF91DB
:100820001F910F9108950895CF93DF93EC0160E03D
:100830008E81C4DF81E090E0FCDE61E08E81BEDF6E
:1008400081E090E0F6DE60E08E81B8DF84E690E043
:10085000DF91CF91EECEEF92FF920F931F93CF9344
:10086000DF938C01C0E0D0E0E62EF12CB7010C2E16
:1008700002C0759567950A94E2F76170F801EC0F74
:10088000FD1F87819BDF2196C430D10579F7C80110
:10089000DF91CF911F910F91FF90EF90C5CFEF9215
:1008A000FF920F931F93CF93DF938C01C0E0D0E0B2
:1008B000E62EF12CB7010C2E02C0759567950A94AF
:1008C000E2F76170F801EC0FFD1F878177DF219659
:1008D000C830D10579F7C801DF91CF911F910F91F1
:1008E000FF90EF90A1CF1F93CF93DF93EC01162FD2
:1008F000642F8C8163DF8D818F3F11F060E05EDFBC
:100900008F85612F84FF05C0CE01DF91CF911F91AC
:10091000C6CF70E084E0759567958A95E1F7CE01C2
:100920009ADF612FCE01DF91CF911F9194CF40E0EC
:10093000DACF61E0FCDF80ED97E07BCE443008F059
:1009400043E0FC012389421710F04FEF420FFC01F6
:10095000E40FF11D2489260F2068622FE8CFFC01E7
:100960006089262F2460208B6C60E1CF0F931F934A
:10097000CF93DF93EC01423018F08F8588608F872A
:100980004B8B1C8A80E48D8B6E8B70E0605C7F4F9C
:100990006F8B222329F0413019F48F8584608F8773
:1009A00061E08C81D2DE8D818F3F11F061E0CDDE80
:1009B00061E08E81CADE00E010E08F8584FF03C015
:1009C00088E090E002C084E090E0081719074CF43A
:1009D000FE01E00FF11F61E08781B7DE0F5F1F4F5F
:1009E000ECCF80E593EC25DE60E08C81E7DE60E013
:1009F0008E81E4DE8D818F3F11F060E0DFDE6F8558
:100A000064FD16C063E0CE0126DF84E991E111DECA
:100A100063E0CE0120DF84E991E10BDE63E0CE01EB
:100A20001ADF86E990E005DE62E0CE0114DF11C036
:100A30006062CE017CDF84E991E1FBDD6F8560625D
:100A4000CE0175DF86E990E0F4DD6F856062CE014E
:100A50006EDF6F856062CE016ADF84E0888BCE0135
:100A60007EDFCE0166DF82E0898B66E0CE01DF911A
:100A7000CF911F910F915BCFCF92EF920F93FC011B
:100A80001382128284E291E09183808364838FEFEA
:100A90008583468327830087E186C2861386148672
:100AA00015861686178620E041E060E1CF010F91A0
:100AB000EF90CF905BCF41E016DF81E090E00895AA
:100AC000A1E21A2EAA1BBB1BFD010DC0AA1FBB1F52
:100AD000EE1FFF1FA217B307E407F50720F0A21BC4
:100AE000B30BE40BF50B661F771F881F991F1A9431
:100AF00069F760957095809590959B01AC01BD015B
:100B0000CF010895EE0FFF1F0590F491E02D099499
:100B1000CF93DF938230910510F482E090E0E09172
:100B20005D01F0915E0120E030E0A0E0B0E03097A0
:100B300039F14081518148175907B8F048175907D2
:100B400071F482819381109729F013969C938E9370
:100B500012972CC090935E0180935D0127C02115F0
:100B6000310531F04217530718F0A901DB0101C02C
:100B7000EF019A01BD01DF010280F381E02DD7CFA3
:100B800021153105F9F0281B390B2430310580F48B
:100B90008A819B816115710521F0FB01938382831A
:100BA00004C090935E0180935D01FE01329644C0C3
:100BB000FE01E20FF31F8193919322503109398393
:100BC00028833AC020915B0130915C01232B41F4D2
:100BD000209102013091030130935C0120935B016D
:100BE00020910001309101012115310541F42DB70B
:100BF0003EB74091040150910501241B350BE09153
:100C00005B01F0915C01E217F307A0F42E1B3F0B90
:100C10002817390778F0AC014E5F5F4F241735076E
:100C200048F04E0F5F1F50935C0140935B0181932E
:100C3000919302C0E0E0F0E0CF01DF91CF91089501
:100C4000CF93DF93009709F487C0FC01329713829A
:100C50001282C0915D01D0915E01209781F42081C4
:100C60003181280F391F80915B0190915C018217BF
:100C7000930779F5F0935C01E0935B016DC0DE01B1
:100C800020E030E0AE17BF0750F412964D915C9112
:100C900013979D014115510509F1DA01F3CFB38393
:100CA000A28340815181840F951F8A179B0771F49D
:100CB0008D919C911197840F951F0296918380834B
:100CC00012968D919C911397938382832115310500
:100CD00029F4F0935E01E0935D013EC0D9011396C3
:100CE000FC93EE9312974D915D91A40FB51FEA17F7
:100CF000FB0779F480819181840F951F0296D901B9
:100D000011969C938E938281938113969C938E93DC
:100D10001297E0E0F0E08A819B81009719F0FE01D4
:100D2000EC01F9CFCE01029628813981820F931F01
:100D300020915B0130915C012817390769F43097E5
:100D400029F410925E0110925D0102C0138212829A
:100D5000D0935C01C0935B01DF91CF910895A0E037
:100D6000B0E0E4EBF6E0D2C0EC01CB01209711F447
:100D7000CFDEB4C0FE01E60FF71F9E0122503109FD
:100D8000E217F30708F4A8C0D9010D911C9111973F
:100D900006171707B0F00530110508F49BC0A8012D
:100DA000445051094617570708F494C002501109DE
:100DB000061B170B019311936D937C93CF0140DFBA
:100DC00089C05B01A01AB10A4E01800E911EA0914C
:100DD0005D01B0915E01612C712C60E070E01097B4
:100DE00009F449C0A815B905C9F5ED90FC90119713
:100DF000670142E0C40ED11CCA14DB0478F147013C
:100E00008A189B08640142E0C40ED11C1296BC9063
:100E100012971396AC91B5E0CB16D10440F0B28294
:100E2000A38391828082D9018D939C9309C00E5F28
:100E30001F4F0E0D1F1DF90111830083EB2DFA2F9B
:100E40006115710531F0DB011396FC93EE93129757
:100E500041C0F0935E01E0935D013CC06D917C91D7
:100E600011976616770608F43B01BD0112960D90A6
:100E7000BC91A02DB4CF60915B0170915C016815AD
:100E80007905E9F468167906D0F440910001509193
:100E900001014115510541F44DB75EB76091040160
:100EA00070910501461B570BE417F507A8F4F09362
:100EB0005C01E0935B01F901918380830BC028DE24
:100EC0007C01009749F0A801BE010CD0CE01B8DE2C
:100ED000C70104C0CE0102C080E090E0CDB7DEB70C
:100EE000EEE030C0FB01DC0102C001900D924150E8
:100EF0005040D8F70895FB01DC0101900D920020CD
:100F0000E1F708952F923F924F925F926F927F92F6
:100F10008F929F92AF92BF92CF92DF92EF92FF9209
:100F20000F931F93CF93DF93CDB7DEB7CA1BDB0BB5
:100F30000FB6F894DEBF0FBECDBF09942A8839885A
:100F400048885F846E847D848C849B84AA84B98461
:100F5000C884DF80EE80FD800C811B81AA81B9816D
:100F6000CE0FD11D0FB6F894DEBF0FBECDBFED0181
:100F7000089510E0CAEBD0E003C0FE01C5DD229663
:0A0F8000CC3BD107D1F7F894FFCF66
:100F8A0000005F018000015B52414D505D005B4DE6
:100F9A0045414E4445525D20005B53494E455D0034
:080FAA00000000005B050701D7
:00000001FF
